{
	"ERC20.sol": {
		"ERC20": {
			"abi": [
				{
					"inputs": [],
					"stateMutability": "nonpayable",
					"type": "constructor"
				},
				{
					"inputs": [
						{
							"internalType": "address",
							"name": "account",
							"type": "address"
						}
					],
					"name": "balanceOf",
					"outputs": [
						{
							"internalType": "uint256",
							"name": "",
							"type": "uint256"
						}
					],
					"stateMutability": "view",
					"type": "function"
				},
				{
					"inputs": [
						{
							"internalType": "address",
							"name": "account",
							"type": "address"
						}
					],
					"name": "blackList",
					"outputs": [],
					"stateMutability": "nonpayable",
					"type": "function"
				},
				{
					"inputs": [],
					"name": "name",
					"outputs": [
						{
							"internalType": "string",
							"name": "",
							"type": "string"
						}
					],
					"stateMutability": "view",
					"type": "function"
				},
				{
					"inputs": [
						{
							"internalType": "address",
							"name": "account",
							"type": "address"
						}
					],
					"name": "removeBlackList",
					"outputs": [],
					"stateMutability": "nonpayable",
					"type": "function"
				},
				{
					"inputs": [],
					"name": "symbol",
					"outputs": [
						{
							"internalType": "string",
							"name": "",
							"type": "string"
						}
					],
					"stateMutability": "view",
					"type": "function"
				},
				{
					"inputs": [],
					"name": "totalSupply",
					"outputs": [
						{
							"internalType": "uint256",
							"name": "",
							"type": "uint256"
						}
					],
					"stateMutability": "view",
					"type": "function"
				},
				{
					"inputs": [
						{
							"internalType": "address",
							"name": "_to",
							"type": "address"
						},
						{
							"internalType": "uint256",
							"name": "_value",
							"type": "uint256"
						}
					],
					"name": "transfer",
					"outputs": [
						{
							"internalType": "bool",
							"name": "success",
							"type": "bool"
						}
					],
					"stateMutability": "nonpayable",
					"type": "function"
				}
			],
			"devdoc": {
				"kind": "dev",
				"methods": {},
				"version": 1
			},
			"evm": {
				"assembly": "    /* \"ERC20.sol\":744:2821  contract ERC20 is ERC20Interface {... */\n  mstore(0x40, 0x80)\n    /* \"ERC20.sol\":1003:1251  constructor(){... */\n  callvalue\n  dup1\n  iszero\n  tag_1\n  jumpi\n  0x00\n  dup1\n  revert\ntag_1:\n  pop\n    /* \"ERC20.sol\":1023:1044  _name = 'ERC20 Token' */\n  mload(0x40)\n  dup1\n  0x40\n  add\n  0x40\n  mstore\n  dup1\n  0x0b\n  dup2\n  mstore\n  0x20\n  add\n  0x455243323020546f6b656e000000000000000000000000000000000000000000\n  dup2\n  mstore\n  pop\n    /* \"ERC20.sol\":1023:1028  _name */\n  0x04\n    /* \"ERC20.sol\":1023:1044  _name = 'ERC20 Token' */\n  swap1\n  dup2\n  tag_4\n  swap2\n  swap1\n  tag_5\n  jump\t// in\ntag_4:\n  pop\n    /* \"ERC20.sol\":1051:1069  _symbol = 'ERC-TK' */\n  mload(0x40)\n  dup1\n  0x40\n  add\n  0x40\n  mstore\n  dup1\n  0x06\n  dup2\n  mstore\n  0x20\n  add\n  0x4552432d544b0000000000000000000000000000000000000000000000000000\n  dup2\n  mstore\n  pop\n    /* \"ERC20.sol\":1051:1058  _symbol */\n  0x05\n    /* \"ERC20.sol\":1051:1069  _symbol = 'ERC-TK' */\n  swap1\n  dup2\n  tag_6\n  swap2\n  swap1\n  tag_5\n  jump\t// in\ntag_6:\n  pop\n    /* \"ERC20.sol\":1088:1090  18 */\n  0x12\n    /* \"ERC20.sol\":1076:1085  _decimals */\n  0x03\n    /* \"ERC20.sol\":1076:1090  _decimals = 18 */\n  dup2\n  swap1\n  sstore\n  pop\n    /* \"ERC20.sol\":1112:1137  1000000000000000000000000 */\n  0xd3c21bcecceda1000000\n    /* \"ERC20.sol\":1097:1109  _totalSupply */\n  0x02\n    /* \"ERC20.sol\":1097:1137  _totalSupply = 1000000000000000000000000 */\n  dup2\n  swap1\n  sstore\n  pop\n    /* \"ERC20.sol\":1186:1198  _totalSupply */\n  sload(0x02)\n    /* \"ERC20.sol\":1162:1171  _balances */\n  0x00\n    /* \"ERC20.sol\":1162:1183  _balances[msg.sender] */\n  dup1\n    /* \"ERC20.sol\":1172:1182  msg.sender */\n  caller\n    /* \"ERC20.sol\":1162:1183  _balances[msg.sender] */\n  0xffffffffffffffffffffffffffffffffffffffff\n  and\n  0xffffffffffffffffffffffffffffffffffffffff\n  and\n  dup2\n  mstore\n  0x20\n  add\n  swap1\n  dup2\n  mstore\n  0x20\n  add\n  0x00\n  keccak256\n    /* \"ERC20.sol\":1162:1198  _balances[msg.sender] = _totalSupply */\n  dup2\n  swap1\n  sstore\n  pop\n    /* \"ERC20.sol\":744:2821  contract ERC20 is ERC20Interface {... */\n  jump(tag_7)\n    /* \"#utility.yul\":7:106   */\ntag_8:\n    /* \"#utility.yul\":59:65   */\n  0x00\n    /* \"#utility.yul\":93:98   */\n  dup2\n    /* \"#utility.yul\":87:99   */\n  mload\n    /* \"#utility.yul\":77:99   */\n  swap1\n  pop\n    /* \"#utility.yul\":7:106   */\n  swap2\n  swap1\n  pop\n  jump\t// out\n    /* \"#utility.yul\":112:292   */\ntag_9:\n    /* \"#utility.yul\":160:237   */\n  0x4e487b7100000000000000000000000000000000000000000000000000000000\n    /* \"#utility.yul\":157:158   */\n  0x00\n    /* \"#utility.yul\":150:238   */\n  mstore\n    /* \"#utility.yul\":257:261   */\n  0x41\n    /* \"#utility.yul\":254:255   */\n  0x04\n    /* \"#utility.yul\":247:262   */\n  mstore\n    /* \"#utility.yul\":281:285   */\n  0x24\n    /* \"#utility.yul\":278:279   */\n  0x00\n    /* \"#utility.yul\":271:286   */\n  revert\n    /* \"#utility.yul\":298:478   */\ntag_10:\n    /* \"#utility.yul\":346:423   */\n  0x4e487b7100000000000000000000000000000000000000000000000000000000\n    /* \"#utility.yul\":343:344   */\n  0x00\n    /* \"#utility.yul\":336:424   */\n  mstore\n    /* \"#utility.yul\":443:447   */\n  0x22\n    /* \"#utility.yul\":440:441   */\n  0x04\n    /* \"#utility.yul\":433:448   */\n  mstore\n    /* \"#utility.yul\":467:471   */\n  0x24\n    /* \"#utility.yul\":464:465   */\n  0x00\n    /* \"#utility.yul\":457:472   */\n  revert\n    /* \"#utility.yul\":484:804   */\ntag_11:\n    /* \"#utility.yul\":528:534   */\n  0x00\n    /* \"#utility.yul\":565:566   */\n  0x02\n    /* \"#utility.yul\":559:563   */\n  dup3\n    /* \"#utility.yul\":555:567   */\n  div\n    /* \"#utility.yul\":545:567   */\n  swap1\n  pop\n    /* \"#utility.yul\":612:613   */\n  0x01\n    /* \"#utility.yul\":606:610   */\n  dup3\n    /* \"#utility.yul\":602:614   */\n  and\n    /* \"#utility.yul\":633:651   */\n  dup1\n    /* \"#utility.yul\":623:704   */\n  tag_33\n  jumpi\n    /* \"#utility.yul\":689:693   */\n  0x7f\n    /* \"#utility.yul\":681:687   */\n  dup3\n    /* \"#utility.yul\":677:694   */\n  and\n    /* \"#utility.yul\":667:694   */\n  swap2\n  pop\n    /* \"#utility.yul\":623:704   */\ntag_33:\n    /* \"#utility.yul\":751:753   */\n  0x20\n    /* \"#utility.yul\":743:749   */\n  dup3\n    /* \"#utility.yul\":740:754   */\n  lt\n    /* \"#utility.yul\":720:738   */\n  dup2\n    /* \"#utility.yul\":717:755   */\n  sub\n    /* \"#utility.yul\":714:798   */\n  tag_34\n  jumpi\n    /* \"#utility.yul\":770:788   */\n  tag_35\n  tag_10\n  jump\t// in\ntag_35:\n    /* \"#utility.yul\":714:798   */\ntag_34:\n    /* \"#utility.yul\":535:804   */\n  pop\n    /* \"#utility.yul\":484:804   */\n  swap2\n  swap1\n  pop\n  jump\t// out\n    /* \"#utility.yul\":810:951   */\ntag_12:\n    /* \"#utility.yul\":859:863   */\n  0x00\n    /* \"#utility.yul\":882:885   */\n  dup2\n    /* \"#utility.yul\":874:885   */\n  swap1\n  pop\n    /* \"#utility.yul\":905:908   */\n  dup2\n    /* \"#utility.yul\":902:903   */\n  0x00\n    /* \"#utility.yul\":895:909   */\n  mstore\n    /* \"#utility.yul\":939:943   */\n  0x20\n    /* \"#utility.yul\":936:937   */\n  0x00\n    /* \"#utility.yul\":926:944   */\n  keccak256\n    /* \"#utility.yul\":918:944   */\n  swap1\n  pop\n    /* \"#utility.yul\":810:951   */\n  swap2\n  swap1\n  pop\n  jump\t// out\n    /* \"#utility.yul\":957:1050   */\ntag_13:\n    /* \"#utility.yul\":994:1000   */\n  0x00\n    /* \"#utility.yul\":1041:1043   */\n  0x20\n    /* \"#utility.yul\":1036:1038   */\n  0x1f\n    /* \"#utility.yul\":1029:1034   */\n  dup4\n    /* \"#utility.yul\":1025:1039   */\n  add\n    /* \"#utility.yul\":1021:1044   */\n  div\n    /* \"#utility.yul\":1011:1044   */\n  swap1\n  pop\n    /* \"#utility.yul\":957:1050   */\n  swap2\n  swap1\n  pop\n  jump\t// out\n    /* \"#utility.yul\":1056:1163   */\ntag_14:\n    /* \"#utility.yul\":1100:1108   */\n  0x00\n    /* \"#utility.yul\":1150:1155   */\n  dup3\n    /* \"#utility.yul\":1144:1148   */\n  dup3\n    /* \"#utility.yul\":1140:1156   */\n  shl\n    /* \"#utility.yul\":1119:1156   */\n  swap1\n  pop\n    /* \"#utility.yul\":1056:1163   */\n  swap3\n  swap2\n  pop\n  pop\n  jump\t// out\n    /* \"#utility.yul\":1169:1562   */\ntag_15:\n    /* \"#utility.yul\":1238:1244   */\n  0x00\n    /* \"#utility.yul\":1288:1289   */\n  0x08\n    /* \"#utility.yul\":1276:1286   */\n  dup4\n    /* \"#utility.yul\":1272:1290   */\n  mul\n    /* \"#utility.yul\":1311:1408   */\n  tag_40\n    /* \"#utility.yul\":1341:1407   */\n  0xffffffffffffffffffffffffffffffffffffffffffffffffffffffffffffffff\n    /* \"#utility.yul\":1330:1339   */\n  dup3\n    /* \"#utility.yul\":1311:1408   */\n  tag_14\n  jump\t// in\ntag_40:\n    /* \"#utility.yul\":1429:1468   */\n  tag_41\n    /* \"#utility.yul\":1459:1467   */\n  dup7\n    /* \"#utility.yul\":1448:1457   */\n  dup4\n    /* \"#utility.yul\":1429:1468   */\n  tag_14\n  jump\t// in\ntag_41:\n    /* \"#utility.yul\":1417:1468   */\n  swap6\n  pop\n    /* \"#utility.yul\":1501:1505   */\n  dup1\n    /* \"#utility.yul\":1497:1506   */\n  not\n    /* \"#utility.yul\":1490:1495   */\n  dup5\n    /* \"#utility.yul\":1486:1507   */\n  and\n    /* \"#utility.yul\":1477:1507   */\n  swap4\n  pop\n    /* \"#utility.yul\":1550:1554   */\n  dup1\n    /* \"#utility.yul\":1540:1548   */\n  dup7\n    /* \"#utility.yul\":1536:1555   */\n  and\n    /* \"#utility.yul\":1529:1534   */\n  dup5\n    /* \"#utility.yul\":1526:1556   */\n  or\n    /* \"#utility.yul\":1516:1556   */\n  swap3\n  pop\n    /* \"#utility.yul\":1245:1562   */\n  pop\n  pop\n    /* \"#utility.yul\":1169:1562   */\n  swap4\n  swap3\n  pop\n  pop\n  pop\n  jump\t// out\n    /* \"#utility.yul\":1568:1645   */\ntag_16:\n    /* \"#utility.yul\":1605:1612   */\n  0x00\n    /* \"#utility.yul\":1634:1639   */\n  dup2\n    /* \"#utility.yul\":1623:1639   */\n  swap1\n  pop\n    /* \"#utility.yul\":1568:1645   */\n  swap2\n  swap1\n  pop\n  jump\t// out\n    /* \"#utility.yul\":1651:1711   */\ntag_17:\n    /* \"#utility.yul\":1679:1682   */\n  0x00\n    /* \"#utility.yul\":1700:1705   */\n  dup2\n    /* \"#utility.yul\":1693:1705   */\n  swap1\n  pop\n    /* \"#utility.yul\":1651:1711   */\n  swap2\n  swap1\n  pop\n  jump\t// out\n    /* \"#utility.yul\":1717:1859   */\ntag_18:\n    /* \"#utility.yul\":1767:1776   */\n  0x00\n    /* \"#utility.yul\":1800:1853   */\n  tag_45\n    /* \"#utility.yul\":1818:1852   */\n  tag_46\n    /* \"#utility.yul\":1827:1851   */\n  tag_47\n    /* \"#utility.yul\":1845:1850   */\n  dup5\n    /* \"#utility.yul\":1827:1851   */\n  tag_16\n  jump\t// in\ntag_47:\n    /* \"#utility.yul\":1818:1852   */\n  tag_17\n  jump\t// in\ntag_46:\n    /* \"#utility.yul\":1800:1853   */\n  tag_16\n  jump\t// in\ntag_45:\n    /* \"#utility.yul\":1787:1853   */\n  swap1\n  pop\n    /* \"#utility.yul\":1717:1859   */\n  swap2\n  swap1\n  pop\n  jump\t// out\n    /* \"#utility.yul\":1865:1940   */\ntag_19:\n    /* \"#utility.yul\":1908:1911   */\n  0x00\n    /* \"#utility.yul\":1929:1934   */\n  dup2\n    /* \"#utility.yul\":1922:1934   */\n  swap1\n  pop\n    /* \"#utility.yul\":1865:1940   */\n  swap2\n  swap1\n  pop\n  jump\t// out\n    /* \"#utility.yul\":1946:2215   */\ntag_20:\n    /* \"#utility.yul\":2056:2095   */\n  tag_50\n    /* \"#utility.yul\":2087:2094   */\n  dup4\n    /* \"#utility.yul\":2056:2095   */\n  tag_18\n  jump\t// in\ntag_50:\n    /* \"#utility.yul\":2117:2208   */\n  tag_51\n    /* \"#utility.yul\":2166:2207   */\n  tag_52\n    /* \"#utility.yul\":2190:2206   */\n  dup3\n    /* \"#utility.yul\":2166:2207   */\n  tag_19\n  jump\t// in\ntag_52:\n    /* \"#utility.yul\":2158:2164   */\n  dup5\n    /* \"#utility.yul\":2151:2155   */\n  dup5\n    /* \"#utility.yul\":2145:2156   */\n  sload\n    /* \"#utility.yul\":2117:2208   */\n  tag_15\n  jump\t// in\ntag_51:\n    /* \"#utility.yul\":2111:2115   */\n  dup3\n    /* \"#utility.yul\":2104:2209   */\n  sstore\n    /* \"#utility.yul\":2022:2215   */\n  pop\n    /* \"#utility.yul\":1946:2215   */\n  pop\n  pop\n  pop\n  jump\t// out\n    /* \"#utility.yul\":2221:2294   */\ntag_21:\n    /* \"#utility.yul\":2266:2269   */\n  0x00\n    /* \"#utility.yul\":2221:2294   */\n  swap1\n  jump\t// out\n    /* \"#utility.yul\":2300:2489   */\ntag_22:\n    /* \"#utility.yul\":2377:2409   */\n  tag_55\n  tag_21\n  jump\t// in\ntag_55:\n    /* \"#utility.yul\":2418:2483   */\n  tag_56\n    /* \"#utility.yul\":2476:2482   */\n  dup2\n    /* \"#utility.yul\":2468:2474   */\n  dup5\n    /* \"#utility.yul\":2462:2466   */\n  dup5\n    /* \"#utility.yul\":2418:2483   */\n  tag_20\n  jump\t// in\ntag_56:\n    /* \"#utility.yul\":2353:2489   */\n  pop\n    /* \"#utility.yul\":2300:2489   */\n  pop\n  pop\n  jump\t// out\n    /* \"#utility.yul\":2495:2681   */\ntag_23:\n    /* \"#utility.yul\":2555:2675   */\ntag_58:\n    /* \"#utility.yul\":2572:2575   */\n  dup2\n    /* \"#utility.yul\":2565:2570   */\n  dup2\n    /* \"#utility.yul\":2562:2576   */\n  lt\n    /* \"#utility.yul\":2555:2675   */\n  iszero\n  tag_60\n  jumpi\n    /* \"#utility.yul\":2626:2665   */\n  tag_61\n    /* \"#utility.yul\":2663:2664   */\n  0x00\n    /* \"#utility.yul\":2656:2661   */\n  dup3\n    /* \"#utility.yul\":2626:2665   */\n  tag_22\n  jump\t// in\ntag_61:\n    /* \"#utility.yul\":2599:2600   */\n  0x01\n    /* \"#utility.yul\":2592:2597   */\n  dup2\n    /* \"#utility.yul\":2588:2601   */\n  add\n    /* \"#utility.yul\":2579:2601   */\n  swap1\n  pop\n    /* \"#utility.yul\":2555:2675   */\n  jump(tag_58)\ntag_60:\n    /* \"#utility.yul\":2495:2681   */\n  pop\n  pop\n  jump\t// out\n    /* \"#utility.yul\":2687:3230   */\ntag_24:\n    /* \"#utility.yul\":2788:2790   */\n  0x1f\n    /* \"#utility.yul\":2783:2786   */\n  dup3\n    /* \"#utility.yul\":2780:2791   */\n  gt\n    /* \"#utility.yul\":2777:3223   */\n  iszero\n  tag_63\n  jumpi\n    /* \"#utility.yul\":2822:2860   */\n  tag_64\n    /* \"#utility.yul\":2854:2859   */\n  dup2\n    /* \"#utility.yul\":2822:2860   */\n  tag_12\n  jump\t// in\ntag_64:\n    /* \"#utility.yul\":2906:2935   */\n  tag_65\n    /* \"#utility.yul\":2924:2934   */\n  dup5\n    /* \"#utility.yul\":2906:2935   */\n  tag_13\n  jump\t// in\ntag_65:\n    /* \"#utility.yul\":2896:2904   */\n  dup2\n    /* \"#utility.yul\":2892:2936   */\n  add\n    /* \"#utility.yul\":3089:3091   */\n  0x20\n    /* \"#utility.yul\":3077:3087   */\n  dup6\n    /* \"#utility.yul\":3074:3092   */\n  lt\n    /* \"#utility.yul\":3071:3120   */\n  iszero\n  tag_66\n  jumpi\n    /* \"#utility.yul\":3110:3118   */\n  dup2\n    /* \"#utility.yul\":3095:3118   */\n  swap1\n  pop\n    /* \"#utility.yul\":3071:3120   */\ntag_66:\n    /* \"#utility.yul\":3133:3213   */\n  tag_67\n    /* \"#utility.yul\":3189:3211   */\n  tag_68\n    /* \"#utility.yul\":3207:3210   */\n  dup6\n    /* \"#utility.yul\":3189:3211   */\n  tag_13\n  jump\t// in\ntag_68:\n    /* \"#utility.yul\":3179:3187   */\n  dup4\n    /* \"#utility.yul\":3175:3212   */\n  add\n    /* \"#utility.yul\":3162:3173   */\n  dup3\n    /* \"#utility.yul\":3133:3213   */\n  tag_23\n  jump\t// in\ntag_67:\n    /* \"#utility.yul\":2792:3223   */\n  pop\n  pop\n    /* \"#utility.yul\":2777:3223   */\ntag_63:\n    /* \"#utility.yul\":2687:3230   */\n  pop\n  pop\n  pop\n  jump\t// out\n    /* \"#utility.yul\":3236:3353   */\ntag_25:\n    /* \"#utility.yul\":3290:3298   */\n  0x00\n    /* \"#utility.yul\":3340:3345   */\n  dup3\n    /* \"#utility.yul\":3334:3338   */\n  dup3\n    /* \"#utility.yul\":3330:3346   */\n  shr\n    /* \"#utility.yul\":3309:3346   */\n  swap1\n  pop\n    /* \"#utility.yul\":3236:3353   */\n  swap3\n  swap2\n  pop\n  pop\n  jump\t// out\n    /* \"#utility.yul\":3359:3528   */\ntag_26:\n    /* \"#utility.yul\":3403:3409   */\n  0x00\n    /* \"#utility.yul\":3436:3487   */\n  tag_71\n    /* \"#utility.yul\":3484:3485   */\n  0x00\n    /* \"#utility.yul\":3480:3486   */\n  not\n    /* \"#utility.yul\":3472:3477   */\n  dup5\n    /* \"#utility.yul\":3469:3470   */\n  0x08\n    /* \"#utility.yul\":3465:3478   */\n  mul\n    /* \"#utility.yul\":3436:3487   */\n  tag_25\n  jump\t// in\ntag_71:\n    /* \"#utility.yul\":3432:3488   */\n  not\n    /* \"#utility.yul\":3517:3521   */\n  dup1\n    /* \"#utility.yul\":3511:3515   */\n  dup4\n    /* \"#utility.yul\":3507:3522   */\n  and\n    /* \"#utility.yul\":3497:3522   */\n  swap2\n  pop\n    /* \"#utility.yul\":3410:3528   */\n  pop\n    /* \"#utility.yul\":3359:3528   */\n  swap3\n  swap2\n  pop\n  pop\n  jump\t// out\n    /* \"#utility.yul\":3533:3828   */\ntag_27:\n    /* \"#utility.yul\":3609:3613   */\n  0x00\n    /* \"#utility.yul\":3755:3784   */\n  tag_73\n    /* \"#utility.yul\":3780:3783   */\n  dup4\n    /* \"#utility.yul\":3774:3778   */\n  dup4\n    /* \"#utility.yul\":3755:3784   */\n  tag_26\n  jump\t// in\ntag_73:\n    /* \"#utility.yul\":3747:3784   */\n  swap2\n  pop\n    /* \"#utility.yul\":3817:3820   */\n  dup3\n    /* \"#utility.yul\":3814:3815   */\n  0x02\n    /* \"#utility.yul\":3810:3821   */\n  mul\n    /* \"#utility.yul\":3804:3808   */\n  dup3\n    /* \"#utility.yul\":3801:3822   */\n  or\n    /* \"#utility.yul\":3793:3822   */\n  swap1\n  pop\n    /* \"#utility.yul\":3533:3828   */\n  swap3\n  swap2\n  pop\n  pop\n  jump\t// out\n    /* \"#utility.yul\":3833:5228   */\ntag_5:\n    /* \"#utility.yul\":3950:3987   */\n  tag_75\n    /* \"#utility.yul\":3983:3986   */\n  dup3\n    /* \"#utility.yul\":3950:3987   */\n  tag_8\n  jump\t// in\ntag_75:\n    /* \"#utility.yul\":4052:4070   */\n  0xffffffffffffffff\n    /* \"#utility.yul\":4044:4050   */\n  dup2\n    /* \"#utility.yul\":4041:4071   */\n  gt\n    /* \"#utility.yul\":4038:4094   */\n  iszero\n  tag_76\n  jumpi\n    /* \"#utility.yul\":4074:4092   */\n  tag_77\n  tag_9\n  jump\t// in\ntag_77:\n    /* \"#utility.yul\":4038:4094   */\ntag_76:\n    /* \"#utility.yul\":4118:4156   */\n  tag_78\n    /* \"#utility.yul\":4150:4154   */\n  dup3\n    /* \"#utility.yul\":4144:4155   */\n  sload\n    /* \"#utility.yul\":4118:4156   */\n  tag_11\n  jump\t// in\ntag_78:\n    /* \"#utility.yul\":4203:4270   */\n  tag_79\n    /* \"#utility.yul\":4263:4269   */\n  dup3\n    /* \"#utility.yul\":4255:4261   */\n  dup3\n    /* \"#utility.yul\":4249:4253   */\n  dup6\n    /* \"#utility.yul\":4203:4270   */\n  tag_24\n  jump\t// in\ntag_79:\n    /* \"#utility.yul\":4297:4298   */\n  0x00\n    /* \"#utility.yul\":4321:4325   */\n  0x20\n    /* \"#utility.yul\":4308:4325   */\n  swap1\n  pop\n    /* \"#utility.yul\":4353:4355   */\n  0x1f\n    /* \"#utility.yul\":4345:4351   */\n  dup4\n    /* \"#utility.yul\":4342:4356   */\n  gt\n    /* \"#utility.yul\":4370:4371   */\n  0x01\n    /* \"#utility.yul\":4365:4983   */\n  dup2\n  eq\n  tag_81\n  jumpi\n    /* \"#utility.yul\":5027:5028   */\n  0x00\n    /* \"#utility.yul\":5044:5050   */\n  dup5\n    /* \"#utility.yul\":5041:5118   */\n  iszero\n  tag_82\n  jumpi\n    /* \"#utility.yul\":5093:5102   */\n  dup3\n    /* \"#utility.yul\":5088:5091   */\n  dup8\n    /* \"#utility.yul\":5084:5103   */\n  add\n    /* \"#utility.yul\":5078:5104   */\n  mload\n    /* \"#utility.yul\":5069:5104   */\n  swap1\n  pop\n    /* \"#utility.yul\":5041:5118   */\ntag_82:\n    /* \"#utility.yul\":5144:5211   */\n  tag_83\n    /* \"#utility.yul\":5204:5210   */\n  dup6\n    /* \"#utility.yul\":5197:5202   */\n  dup3\n    /* \"#utility.yul\":5144:5211   */\n  tag_27\n  jump\t// in\ntag_83:\n    /* \"#utility.yul\":5138:5142   */\n  dup7\n    /* \"#utility.yul\":5131:5212   */\n  sstore\n    /* \"#utility.yul\":5000:5222   */\n  pop\n    /* \"#utility.yul\":4335:5222   */\n  jump(tag_80)\n    /* \"#utility.yul\":4365:4983   */\ntag_81:\n    /* \"#utility.yul\":4417:4421   */\n  0x1f\n    /* \"#utility.yul\":4413:4422   */\n  not\n    /* \"#utility.yul\":4405:4411   */\n  dup5\n    /* \"#utility.yul\":4401:4423   */\n  and\n    /* \"#utility.yul\":4451:4488   */\n  tag_84\n    /* \"#utility.yul\":4483:4487   */\n  dup7\n    /* \"#utility.yul\":4451:4488   */\n  tag_12\n  jump\t// in\ntag_84:\n    /* \"#utility.yul\":4510:4511   */\n  0x00\n    /* \"#utility.yul\":4524:4732   */\ntag_85:\n    /* \"#utility.yul\":4538:4545   */\n  dup3\n    /* \"#utility.yul\":4535:4536   */\n  dup2\n    /* \"#utility.yul\":4532:4546   */\n  lt\n    /* \"#utility.yul\":4524:4732   */\n  iszero\n  tag_87\n  jumpi\n    /* \"#utility.yul\":4617:4626   */\n  dup5\n    /* \"#utility.yul\":4612:4615   */\n  dup10\n    /* \"#utility.yul\":4608:4627   */\n  add\n    /* \"#utility.yul\":4602:4628   */\n  mload\n    /* \"#utility.yul\":4594:4600   */\n  dup3\n    /* \"#utility.yul\":4587:4629   */\n  sstore\n    /* \"#utility.yul\":4668:4669   */\n  0x01\n    /* \"#utility.yul\":4660:4666   */\n  dup3\n    /* \"#utility.yul\":4656:4670   */\n  add\n    /* \"#utility.yul\":4646:4670   */\n  swap2\n  pop\n    /* \"#utility.yul\":4715:4717   */\n  0x20\n    /* \"#utility.yul\":4704:4713   */\n  dup6\n    /* \"#utility.yul\":4700:4718   */\n  add\n    /* \"#utility.yul\":4687:4718   */\n  swap5\n  pop\n    /* \"#utility.yul\":4561:4565   */\n  0x20\n    /* \"#utility.yul\":4558:4559   */\n  dup2\n    /* \"#utility.yul\":4554:4566   */\n  add\n    /* \"#utility.yul\":4549:4566   */\n  swap1\n  pop\n    /* \"#utility.yul\":4524:4732   */\n  jump(tag_85)\ntag_87:\n    /* \"#utility.yul\":4760:4766   */\n  dup7\n    /* \"#utility.yul\":4751:4758   */\n  dup4\n    /* \"#utility.yul\":4748:4767   */\n  lt\n    /* \"#utility.yul\":4745:4924   */\n  iszero\n  tag_88\n  jumpi\n    /* \"#utility.yul\":4818:4827   */\n  dup5\n    /* \"#utility.yul\":4813:4816   */\n  dup10\n    /* \"#utility.yul\":4809:4828   */\n  add\n    /* \"#utility.yul\":4803:4829   */\n  mload\n    /* \"#utility.yul\":4861:4909   */\n  tag_89\n    /* \"#utility.yul\":4903:4907   */\n  0x1f\n    /* \"#utility.yul\":4895:4901   */\n  dup10\n    /* \"#utility.yul\":4891:4908   */\n  and\n    /* \"#utility.yul\":4880:4889   */\n  dup3\n    /* \"#utility.yul\":4861:4909   */\n  tag_26\n  jump\t// in\ntag_89:\n    /* \"#utility.yul\":4853:4859   */\n  dup4\n    /* \"#utility.yul\":4846:4910   */\n  sstore\n    /* \"#utility.yul\":4768:4924   */\n  pop\n    /* \"#utility.yul\":4745:4924   */\ntag_88:\n    /* \"#utility.yul\":4970:4971   */\n  0x01\n    /* \"#utility.yul\":4966:4967   */\n  0x02\n    /* \"#utility.yul\":4958:4964   */\n  dup9\n    /* \"#utility.yul\":4954:4968   */\n  mul\n    /* \"#utility.yul\":4950:4972   */\n  add\n    /* \"#utility.yul\":4944:4948   */\n  dup9\n    /* \"#utility.yul\":4937:4973   */\n  sstore\n    /* \"#utility.yul\":4372:4983   */\n  pop\n  pop\n  pop\n    /* \"#utility.yul\":4335:5222   */\ntag_80:\n  pop\n    /* \"#utility.yul\":3925:5228   */\n  pop\n  pop\n  pop\n    /* \"#utility.yul\":3833:5228   */\n  pop\n  pop\n  jump\t// out\n    /* \"ERC20.sol\":744:2821  contract ERC20 is ERC20Interface {... */\ntag_7:\n  dataSize(sub_0)\n  dup1\n  dataOffset(sub_0)\n  0x00\n  codecopy\n  0x00\n  return\nstop\n\nsub_0: assembly {\n        /* \"ERC20.sol\":744:2821  contract ERC20 is ERC20Interface {... */\n      mstore(0x40, 0x80)\n      callvalue\n      dup1\n      iszero\n      tag_1\n      jumpi\n      0x00\n      dup1\n      revert\n    tag_1:\n      pop\n      jumpi(tag_2, lt(calldatasize, 0x04))\n      shr(0xe0, calldataload(0x00))\n      dup1\n      0x70a08231\n      gt\n      tag_10\n      jumpi\n      dup1\n      0x70a08231\n      eq\n      tag_6\n      jumpi\n      dup1\n      0x95d89b41\n      eq\n      tag_7\n      jumpi\n      dup1\n      0xa9059cbb\n      eq\n      tag_8\n      jumpi\n      dup1\n      0xe4997dc5\n      eq\n      tag_9\n      jumpi\n      jump(tag_2)\n    tag_10:\n      dup1\n      0x06fdde03\n      eq\n      tag_3\n      jumpi\n      dup1\n      0x18160ddd\n      eq\n      tag_4\n      jumpi\n      dup1\n      0x4838d165\n      eq\n      tag_5\n      jumpi\n    tag_2:\n      0x00\n      dup1\n      revert\n        /* \"ERC20.sol\":1296:1390  function name() public view virtual override returns (string memory) {... */\n    tag_3:\n      tag_11\n      tag_12\n      jump\t// in\n    tag_11:\n      mload(0x40)\n      tag_13\n      swap2\n      swap1\n      tag_14\n      jump\t// in\n    tag_13:\n      mload(0x40)\n      dup1\n      swap2\n      sub\n      swap1\n      return\n        /* \"ERC20.sol\":1590:1692  function totalSupply() public view virtual override returns (uint256) {... */\n    tag_4:\n      tag_15\n      tag_16\n      jump\t// in\n    tag_15:\n      mload(0x40)\n      tag_17\n      swap2\n      swap1\n      tag_18\n      jump\t// in\n    tag_17:\n      mload(0x40)\n      dup1\n      swap2\n      sub\n      swap1\n      return\n        /* \"ERC20.sol\":2000:2086  function blackList(address account) external {... */\n    tag_5:\n      tag_19\n      0x04\n      dup1\n      calldatasize\n      sub\n      dup2\n      add\n      swap1\n      tag_20\n      swap2\n      swap1\n      tag_21\n      jump\t// in\n    tag_20:\n      tag_22\n      jump\t// in\n    tag_19:\n      stop\n        /* \"ERC20.sol\":1742:1956  function balanceOf(address account) public view virtual override returns (uint256) {... */\n    tag_6:\n      tag_23\n      0x04\n      dup1\n      calldatasize\n      sub\n      dup2\n      add\n      swap1\n      tag_24\n      swap2\n      swap1\n      tag_21\n      jump\t// in\n    tag_24:\n      tag_25\n      jump\t// in\n    tag_23:\n      mload(0x40)\n      tag_26\n      swap2\n      swap1\n      tag_18\n      jump\t// in\n    tag_26:\n      mload(0x40)\n      dup1\n      swap2\n      sub\n      swap1\n      return\n        /* \"ERC20.sol\":1437:1535  function symbol() public view virtual override returns (string memory) {... */\n    tag_7:\n      tag_27\n      tag_28\n      jump\t// in\n    tag_27:\n      mload(0x40)\n      tag_29\n      swap2\n      swap1\n      tag_14\n      jump\t// in\n    tag_29:\n      mload(0x40)\n      dup1\n      swap2\n      sub\n      swap1\n      return\n        /* \"ERC20.sol\":2286:2818  function transfer(address _to, uint256 _value) external returns (bool success){... */\n    tag_8:\n      tag_30\n      0x04\n      dup1\n      calldatasize\n      sub\n      dup2\n      add\n      swap1\n      tag_31\n      swap2\n      swap1\n      tag_32\n      jump\t// in\n    tag_31:\n      tag_33\n      jump\t// in\n    tag_30:\n      mload(0x40)\n      tag_34\n      swap2\n      swap1\n      tag_35\n      jump\t// in\n    tag_34:\n      mload(0x40)\n      dup1\n      swap2\n      sub\n      swap1\n      return\n        /* \"ERC20.sol\":2136:2229  function removeBlackList(address account) external {... */\n    tag_9:\n      tag_36\n      0x04\n      dup1\n      calldatasize\n      sub\n      dup2\n      add\n      swap1\n      tag_37\n      swap2\n      swap1\n      tag_21\n      jump\t// in\n    tag_37:\n      tag_38\n      jump\t// in\n    tag_36:\n      stop\n        /* \"ERC20.sol\":1296:1390  function name() public view virtual override returns (string memory) {... */\n    tag_12:\n        /* \"ERC20.sol\":1350:1363  string memory */\n      0x60\n        /* \"ERC20.sol\":1379:1384  _name */\n      0x04\n        /* \"ERC20.sol\":1372:1384  return _name */\n      dup1\n      sload\n      tag_40\n      swap1\n      tag_41\n      jump\t// in\n    tag_40:\n      dup1\n      0x1f\n      add\n      0x20\n      dup1\n      swap2\n      div\n      mul\n      0x20\n      add\n      mload(0x40)\n      swap1\n      dup2\n      add\n      0x40\n      mstore\n      dup1\n      swap3\n      swap2\n      swap1\n      dup2\n      dup2\n      mstore\n      0x20\n      add\n      dup3\n      dup1\n      sload\n      tag_42\n      swap1\n      tag_41\n      jump\t// in\n    tag_42:\n      dup1\n      iszero\n      tag_43\n      jumpi\n      dup1\n      0x1f\n      lt\n      tag_44\n      jumpi\n      0x0100\n      dup1\n      dup4\n      sload\n      div\n      mul\n      dup4\n      mstore\n      swap2\n      0x20\n      add\n      swap2\n      jump(tag_43)\n    tag_44:\n      dup3\n      add\n      swap2\n      swap1\n      0x00\n      mstore\n      keccak256(0x00, 0x20)\n      swap1\n    tag_45:\n      dup2\n      sload\n      dup2\n      mstore\n      swap1\n      0x01\n      add\n      swap1\n      0x20\n      add\n      dup1\n      dup4\n      gt\n      tag_45\n      jumpi\n      dup3\n      swap1\n      sub\n      0x1f\n      and\n      dup3\n      add\n      swap2\n    tag_43:\n      pop\n      pop\n      pop\n      pop\n      pop\n      swap1\n      pop\n        /* \"ERC20.sol\":1296:1390  function name() public view virtual override returns (string memory) {... */\n      swap1\n      jump\t// out\n        /* \"ERC20.sol\":1590:1692  function totalSupply() public view virtual override returns (uint256) {... */\n    tag_16:\n        /* \"ERC20.sol\":1651:1658  uint256 */\n      0x00\n        /* \"ERC20.sol\":1674:1686  _totalSupply */\n      sload(0x02)\n        /* \"ERC20.sol\":1667:1686  return _totalSupply */\n      swap1\n      pop\n        /* \"ERC20.sol\":1590:1692  function totalSupply() public view virtual override returns (uint256) {... */\n      swap1\n      jump\t// out\n        /* \"ERC20.sol\":2000:2086  function blackList(address account) external {... */\n    tag_22:\n        /* \"ERC20.sol\":2076:2080  true */\n      0x01\n        /* \"ERC20.sol\":2052:2064  _blacklisted */\n      dup1\n        /* \"ERC20.sol\":2052:2073  _blacklisted[account] */\n      0x00\n        /* \"ERC20.sol\":2065:2072  account */\n      dup4\n        /* \"ERC20.sol\":2052:2073  _blacklisted[account] */\n      0xffffffffffffffffffffffffffffffffffffffff\n      and\n      0xffffffffffffffffffffffffffffffffffffffff\n      and\n      dup2\n      mstore\n      0x20\n      add\n      swap1\n      dup2\n      mstore\n      0x20\n      add\n      0x00\n      keccak256\n      0x00\n        /* \"ERC20.sol\":2052:2080  _blacklisted[account] = true */\n      0x0100\n      exp\n      dup2\n      sload\n      dup2\n      0xff\n      mul\n      not\n      and\n      swap1\n      dup4\n      iszero\n      iszero\n      mul\n      or\n      swap1\n      sstore\n      pop\n        /* \"ERC20.sol\":2000:2086  function blackList(address account) external {... */\n      pop\n      jump\t// out\n        /* \"ERC20.sol\":1742:1956  function balanceOf(address account) public view virtual override returns (uint256) {... */\n    tag_25:\n        /* \"ERC20.sol\":1816:1823  uint256 */\n      0x00\n        /* \"ERC20.sol\":1835:1847  _blacklisted */\n      0x01\n        /* \"ERC20.sol\":1835:1856  _blacklisted[account] */\n      0x00\n        /* \"ERC20.sol\":1848:1855  account */\n      dup4\n        /* \"ERC20.sol\":1835:1856  _blacklisted[account] */\n      0xffffffffffffffffffffffffffffffffffffffff\n      and\n      0xffffffffffffffffffffffffffffffffffffffff\n      and\n      dup2\n      mstore\n      0x20\n      add\n      swap1\n      dup2\n      mstore\n      0x20\n      add\n      0x00\n      keccak256\n      0x00\n      swap1\n      sload\n      swap1\n      0x0100\n      exp\n      swap1\n      div\n      0xff\n      and\n        /* \"ERC20.sol\":1832:1882  if(_blacklisted[account]){... */\n      iszero\n      tag_49\n      jumpi\n        /* \"ERC20.sol\":1873:1874  0 */\n      0x00\n        /* \"ERC20.sol\":1866:1874  return 0 */\n      swap1\n      pop\n      jump(tag_48)\n        /* \"ERC20.sol\":1832:1882  if(_blacklisted[account]){... */\n    tag_49:\n        /* \"ERC20.sol\":1895:1950  ERC20Lib.convertBalance(_balances[account], _decimals ) */\n      tag_50\n        /* \"ERC20.sol\":1919:1928  _balances */\n      0x00\n        /* \"ERC20.sol\":1919:1937  _balances[account] */\n      dup1\n        /* \"ERC20.sol\":1929:1936  account */\n      dup5\n        /* \"ERC20.sol\":1919:1937  _balances[account] */\n      0xffffffffffffffffffffffffffffffffffffffff\n      and\n      0xffffffffffffffffffffffffffffffffffffffff\n      and\n      dup2\n      mstore\n      0x20\n      add\n      swap1\n      dup2\n      mstore\n      0x20\n      add\n      0x00\n      keccak256\n      sload\n        /* \"ERC20.sol\":1939:1948  _decimals */\n      sload(0x03)\n        /* \"ERC20.sol\":1895:1918  ERC20Lib.convertBalance */\n      tag_51\n        /* \"ERC20.sol\":1895:1950  ERC20Lib.convertBalance(_balances[account], _decimals ) */\n      jump\t// in\n    tag_50:\n        /* \"ERC20.sol\":1888:1950  return ERC20Lib.convertBalance(_balances[account], _decimals ) */\n      swap1\n      pop\n        /* \"ERC20.sol\":1742:1956  function balanceOf(address account) public view virtual override returns (uint256) {... */\n    tag_48:\n      swap2\n      swap1\n      pop\n      jump\t// out\n        /* \"ERC20.sol\":1437:1535  function symbol() public view virtual override returns (string memory) {... */\n    tag_28:\n        /* \"ERC20.sol\":1493:1506  string memory */\n      0x60\n        /* \"ERC20.sol\":1522:1529  _symbol */\n      0x05\n        /* \"ERC20.sol\":1515:1529  return _symbol */\n      dup1\n      sload\n      tag_53\n      swap1\n      tag_41\n      jump\t// in\n    tag_53:\n      dup1\n      0x1f\n      add\n      0x20\n      dup1\n      swap2\n      div\n      mul\n      0x20\n      add\n      mload(0x40)\n      swap1\n      dup2\n      add\n      0x40\n      mstore\n      dup1\n      swap3\n      swap2\n      swap1\n      dup2\n      dup2\n      mstore\n      0x20\n      add\n      dup3\n      dup1\n      sload\n      tag_54\n      swap1\n      tag_41\n      jump\t// in\n    tag_54:\n      dup1\n      iszero\n      tag_55\n      jumpi\n      dup1\n      0x1f\n      lt\n      tag_56\n      jumpi\n      0x0100\n      dup1\n      dup4\n      sload\n      div\n      mul\n      dup4\n      mstore\n      swap2\n      0x20\n      add\n      swap2\n      jump(tag_55)\n    tag_56:\n      dup3\n      add\n      swap2\n      swap1\n      0x00\n      mstore\n      keccak256(0x00, 0x20)\n      swap1\n    tag_57:\n      dup2\n      sload\n      dup2\n      mstore\n      swap1\n      0x01\n      add\n      swap1\n      0x20\n      add\n      dup1\n      dup4\n      gt\n      tag_57\n      jumpi\n      dup3\n      swap1\n      sub\n      0x1f\n      and\n      dup3\n      add\n      swap2\n    tag_55:\n      pop\n      pop\n      pop\n      pop\n      pop\n      swap1\n      pop\n        /* \"ERC20.sol\":1437:1535  function symbol() public view virtual override returns (string memory) {... */\n      swap1\n      jump\t// out\n        /* \"ERC20.sol\":2286:2818  function transfer(address _to, uint256 _value) external returns (bool success){... */\n    tag_33:\n        /* \"ERC20.sol\":2351:2363  bool success */\n      0x00\n        /* \"ERC20.sol\":2489:2490  0 */\n      dup1\n        /* \"ERC20.sol\":2480:2486  _value */\n      dup3\n        /* \"ERC20.sol\":2480:2490  _value < 0 */\n      lt\n        /* \"ERC20.sol\":2480:2562  _value < 0 ||  ERC20Lib.convertBalance(_balances[msg.sender], _decimals ) < _value */\n      dup1\n      tag_59\n      jumpi\n      pop\n        /* \"ERC20.sol\":2556:2562  _value */\n      dup2\n        /* \"ERC20.sol\":2495:2553  ERC20Lib.convertBalance(_balances[msg.sender], _decimals ) */\n      tag_60\n        /* \"ERC20.sol\":2519:2528  _balances */\n      0x00\n        /* \"ERC20.sol\":2519:2540  _balances[msg.sender] */\n      dup1\n        /* \"ERC20.sol\":2529:2539  msg.sender */\n      caller\n        /* \"ERC20.sol\":2519:2540  _balances[msg.sender] */\n      0xffffffffffffffffffffffffffffffffffffffff\n      and\n      0xffffffffffffffffffffffffffffffffffffffff\n      and\n      dup2\n      mstore\n      0x20\n      add\n      swap1\n      dup2\n      mstore\n      0x20\n      add\n      0x00\n      keccak256\n      sload\n        /* \"ERC20.sol\":2542:2551  _decimals */\n      sload(0x03)\n        /* \"ERC20.sol\":2495:2518  ERC20Lib.convertBalance */\n      tag_51\n        /* \"ERC20.sol\":2495:2553  ERC20Lib.convertBalance(_balances[msg.sender], _decimals ) */\n      jump\t// in\n    tag_60:\n        /* \"ERC20.sol\":2495:2562  ERC20Lib.convertBalance(_balances[msg.sender], _decimals ) < _value */\n      lt\n        /* \"ERC20.sol\":2480:2562  _value < 0 ||  ERC20Lib.convertBalance(_balances[msg.sender], _decimals ) < _value */\n    tag_59:\n        /* \"ERC20.sol\":2477:2592  if(_value < 0 ||  ERC20Lib.convertBalance(_balances[msg.sender], _decimals ) < _value){... */\n      iszero\n      tag_61\n      jumpi\n        /* \"ERC20.sol\":2579:2584  false */\n      0x00\n        /* \"ERC20.sol\":2572:2584  return false */\n      swap1\n      pop\n      jump(tag_58)\n        /* \"ERC20.sol\":2477:2592  if(_value < 0 ||  ERC20Lib.convertBalance(_balances[msg.sender], _decimals ) < _value){... */\n    tag_61:\n        /* \"ERC20.sol\":2625:2665  ERC20Lib.convertValue(_value, _decimals) */\n      tag_62\n        /* \"ERC20.sol\":2647:2653  _value */\n      dup3\n        /* \"ERC20.sol\":2655:2664  _decimals */\n      sload(0x03)\n        /* \"ERC20.sol\":2625:2646  ERC20Lib.convertValue */\n      tag_63\n        /* \"ERC20.sol\":2625:2665  ERC20Lib.convertValue(_value, _decimals) */\n      jump\t// in\n    tag_62:\n        /* \"ERC20.sol\":2600:2609  _balances */\n      0x00\n        /* \"ERC20.sol\":2600:2621  _balances[msg.sender] */\n      dup1\n        /* \"ERC20.sol\":2610:2620  msg.sender */\n      caller\n        /* \"ERC20.sol\":2600:2621  _balances[msg.sender] */\n      0xffffffffffffffffffffffffffffffffffffffff\n      and\n      0xffffffffffffffffffffffffffffffffffffffff\n      and\n      dup2\n      mstore\n      0x20\n      add\n      swap1\n      dup2\n      mstore\n      0x20\n      add\n      0x00\n      keccak256\n      0x00\n        /* \"ERC20.sol\":2600:2665  _balances[msg.sender] -= ERC20Lib.convertValue(_value, _decimals) */\n      dup3\n      dup3\n      sload\n      tag_64\n      swap2\n      swap1\n      tag_65\n      jump\t// in\n    tag_64:\n      swap3\n      pop\n      pop\n      dup2\n      swap1\n      sstore\n      pop\n        /* \"ERC20.sol\":2719:2759  ERC20Lib.convertValue(_value, _decimals) */\n      tag_66\n        /* \"ERC20.sol\":2741:2747  _value */\n      dup3\n        /* \"ERC20.sol\":2749:2758  _decimals */\n      sload(0x03)\n        /* \"ERC20.sol\":2719:2740  ERC20Lib.convertValue */\n      tag_63\n        /* \"ERC20.sol\":2719:2759  ERC20Lib.convertValue(_value, _decimals) */\n      jump\t// in\n    tag_66:\n        /* \"ERC20.sol\":2701:2710  _balances */\n      0x00\n        /* \"ERC20.sol\":2701:2715  _balances[_to] */\n      dup1\n        /* \"ERC20.sol\":2711:2714  _to */\n      dup6\n        /* \"ERC20.sol\":2701:2715  _balances[_to] */\n      0xffffffffffffffffffffffffffffffffffffffff\n      and\n      0xffffffffffffffffffffffffffffffffffffffff\n      and\n      dup2\n      mstore\n      0x20\n      add\n      swap1\n      dup2\n      mstore\n      0x20\n      add\n      0x00\n      keccak256\n      0x00\n        /* \"ERC20.sol\":2701:2759  _balances[_to] += ERC20Lib.convertValue(_value, _decimals) */\n      dup3\n      dup3\n      sload\n      tag_67\n      swap2\n      swap1\n      tag_68\n      jump\t// in\n    tag_67:\n      swap3\n      pop\n      pop\n      dup2\n      swap1\n      sstore\n      pop\n        /* \"ERC20.sol\":2808:2812  true */\n      0x01\n        /* \"ERC20.sol\":2801:2812  return true */\n      swap1\n      pop\n        /* \"ERC20.sol\":2286:2818  function transfer(address _to, uint256 _value) external returns (bool success){... */\n    tag_58:\n      swap3\n      swap2\n      pop\n      pop\n      jump\t// out\n        /* \"ERC20.sol\":2136:2229  function removeBlackList(address account) external {... */\n    tag_38:\n        /* \"ERC20.sol\":2218:2223  false */\n      0x00\n        /* \"ERC20.sol\":2194:2206  _blacklisted */\n      0x01\n        /* \"ERC20.sol\":2194:2215  _blacklisted[account] */\n      0x00\n        /* \"ERC20.sol\":2207:2214  account */\n      dup4\n        /* \"ERC20.sol\":2194:2215  _blacklisted[account] */\n      0xffffffffffffffffffffffffffffffffffffffff\n      and\n      0xffffffffffffffffffffffffffffffffffffffff\n      and\n      dup2\n      mstore\n      0x20\n      add\n      swap1\n      dup2\n      mstore\n      0x20\n      add\n      0x00\n      keccak256\n      0x00\n        /* \"ERC20.sol\":2194:2223  _blacklisted[account] = false */\n      0x0100\n      exp\n      dup2\n      sload\n      dup2\n      0xff\n      mul\n      not\n      and\n      swap1\n      dup4\n      iszero\n      iszero\n      mul\n      or\n      swap1\n      sstore\n      pop\n        /* \"ERC20.sol\":2136:2229  function removeBlackList(address account) external {... */\n      pop\n      jump\t// out\n        /* \"ERC20.sol\":453:594  function convertBalance(uint256 _balance, uint256 _decimalVal ) internal pure returns (uint256){... */\n    tag_51:\n        /* \"ERC20.sol\":540:547  uint256 */\n      0x00\n        /* \"ERC20.sol\":577:588  _decimalVal */\n      dup2\n        /* \"ERC20.sol\":573:575  10 */\n      0x0a\n        /* \"ERC20.sol\":573:588  10**_decimalVal */\n      tag_71\n      swap2\n      swap1\n      tag_72\n      jump\t// in\n    tag_71:\n        /* \"ERC20.sol\":562:570  _balance */\n      dup4\n        /* \"ERC20.sol\":562:588  _balance / 10**_decimalVal */\n      tag_73\n      swap2\n      swap1\n      tag_74\n      jump\t// in\n    tag_73:\n        /* \"ERC20.sol\":555:588  return _balance / 10**_decimalVal */\n      swap1\n      pop\n        /* \"ERC20.sol\":453:594  function convertBalance(uint256 _balance, uint256 _decimalVal ) internal pure returns (uint256){... */\n      swap3\n      swap2\n      pop\n      pop\n      jump\t// out\n        /* \"ERC20.sol\":602:737  function convertValue(uint256 _value, uint256 _decimalVal ) internal pure returns (uint256){... */\n    tag_63:\n        /* \"ERC20.sol\":685:692  uint256 */\n      0x00\n        /* \"ERC20.sol\":720:731  _decimalVal */\n      dup2\n        /* \"ERC20.sol\":716:718  10 */\n      0x0a\n        /* \"ERC20.sol\":716:731  10**_decimalVal */\n      tag_76\n      swap2\n      swap1\n      tag_72\n      jump\t// in\n    tag_76:\n        /* \"ERC20.sol\":707:713  _value */\n      dup4\n        /* \"ERC20.sol\":707:731  _value * 10**_decimalVal */\n      tag_77\n      swap2\n      swap1\n      tag_78\n      jump\t// in\n    tag_77:\n        /* \"ERC20.sol\":700:731  return _value * 10**_decimalVal */\n      swap1\n      pop\n        /* \"ERC20.sol\":602:737  function convertValue(uint256 _value, uint256 _decimalVal ) internal pure returns (uint256){... */\n      swap3\n      swap2\n      pop\n      pop\n      jump\t// out\n        /* \"#utility.yul\":7:106   */\n    tag_79:\n        /* \"#utility.yul\":59:65   */\n      0x00\n        /* \"#utility.yul\":93:98   */\n      dup2\n        /* \"#utility.yul\":87:99   */\n      mload\n        /* \"#utility.yul\":77:99   */\n      swap1\n      pop\n        /* \"#utility.yul\":7:106   */\n      swap2\n      swap1\n      pop\n      jump\t// out\n        /* \"#utility.yul\":112:281   */\n    tag_80:\n        /* \"#utility.yul\":196:207   */\n      0x00\n        /* \"#utility.yul\":230:236   */\n      dup3\n        /* \"#utility.yul\":225:228   */\n      dup3\n        /* \"#utility.yul\":218:237   */\n      mstore\n        /* \"#utility.yul\":270:274   */\n      0x20\n        /* \"#utility.yul\":265:268   */\n      dup3\n        /* \"#utility.yul\":261:275   */\n      add\n        /* \"#utility.yul\":246:275   */\n      swap1\n      pop\n        /* \"#utility.yul\":112:281   */\n      swap3\n      swap2\n      pop\n      pop\n      jump\t// out\n        /* \"#utility.yul\":287:533   */\n    tag_81:\n        /* \"#utility.yul\":368:369   */\n      0x00\n        /* \"#utility.yul\":378:491   */\n    tag_107:\n        /* \"#utility.yul\":392:398   */\n      dup4\n        /* \"#utility.yul\":389:390   */\n      dup2\n        /* \"#utility.yul\":386:399   */\n      lt\n        /* \"#utility.yul\":378:491   */\n      iszero\n      tag_109\n      jumpi\n        /* \"#utility.yul\":477:478   */\n      dup1\n        /* \"#utility.yul\":472:475   */\n      dup3\n        /* \"#utility.yul\":468:479   */\n      add\n        /* \"#utility.yul\":462:480   */\n      mload\n        /* \"#utility.yul\":458:459   */\n      dup2\n        /* \"#utility.yul\":453:456   */\n      dup5\n        /* \"#utility.yul\":449:460   */\n      add\n        /* \"#utility.yul\":442:481   */\n      mstore\n        /* \"#utility.yul\":414:416   */\n      0x20\n        /* \"#utility.yul\":411:412   */\n      dup2\n        /* \"#utility.yul\":407:417   */\n      add\n        /* \"#utility.yul\":402:417   */\n      swap1\n      pop\n        /* \"#utility.yul\":378:491   */\n      jump(tag_107)\n    tag_109:\n        /* \"#utility.yul\":525:526   */\n      0x00\n        /* \"#utility.yul\":516:522   */\n      dup5\n        /* \"#utility.yul\":511:514   */\n      dup5\n        /* \"#utility.yul\":507:523   */\n      add\n        /* \"#utility.yul\":500:527   */\n      mstore\n        /* \"#utility.yul\":349:533   */\n      pop\n        /* \"#utility.yul\":287:533   */\n      pop\n      pop\n      pop\n      jump\t// out\n        /* \"#utility.yul\":539:641   */\n    tag_82:\n        /* \"#utility.yul\":580:586   */\n      0x00\n        /* \"#utility.yul\":631:633   */\n      0x1f\n        /* \"#utility.yul\":627:634   */\n      not\n        /* \"#utility.yul\":622:624   */\n      0x1f\n        /* \"#utility.yul\":615:620   */\n      dup4\n        /* \"#utility.yul\":611:625   */\n      add\n        /* \"#utility.yul\":607:635   */\n      and\n        /* \"#utility.yul\":597:635   */\n      swap1\n      pop\n        /* \"#utility.yul\":539:641   */\n      swap2\n      swap1\n      pop\n      jump\t// out\n        /* \"#utility.yul\":647:1024   */\n    tag_83:\n        /* \"#utility.yul\":735:738   */\n      0x00\n        /* \"#utility.yul\":763:802   */\n      tag_112\n        /* \"#utility.yul\":796:801   */\n      dup3\n        /* \"#utility.yul\":763:802   */\n      tag_79\n      jump\t// in\n    tag_112:\n        /* \"#utility.yul\":818:889   */\n      tag_113\n        /* \"#utility.yul\":882:888   */\n      dup2\n        /* \"#utility.yul\":877:880   */\n      dup6\n        /* \"#utility.yul\":818:889   */\n      tag_80\n      jump\t// in\n    tag_113:\n        /* \"#utility.yul\":811:889   */\n      swap4\n      pop\n        /* \"#utility.yul\":898:963   */\n      tag_114\n        /* \"#utility.yul\":956:962   */\n      dup2\n        /* \"#utility.yul\":951:954   */\n      dup6\n        /* \"#utility.yul\":944:948   */\n      0x20\n        /* \"#utility.yul\":937:942   */\n      dup7\n        /* \"#utility.yul\":933:949   */\n      add\n        /* \"#utility.yul\":898:963   */\n      tag_81\n      jump\t// in\n    tag_114:\n        /* \"#utility.yul\":988:1017   */\n      tag_115\n        /* \"#utility.yul\":1010:1016   */\n      dup2\n        /* \"#utility.yul\":988:1017   */\n      tag_82\n      jump\t// in\n    tag_115:\n        /* \"#utility.yul\":983:986   */\n      dup5\n        /* \"#utility.yul\":979:1018   */\n      add\n        /* \"#utility.yul\":972:1018   */\n      swap2\n      pop\n        /* \"#utility.yul\":739:1024   */\n      pop\n        /* \"#utility.yul\":647:1024   */\n      swap3\n      swap2\n      pop\n      pop\n      jump\t// out\n        /* \"#utility.yul\":1030:1343   */\n    tag_14:\n        /* \"#utility.yul\":1143:1147   */\n      0x00\n        /* \"#utility.yul\":1181:1183   */\n      0x20\n        /* \"#utility.yul\":1170:1179   */\n      dup3\n        /* \"#utility.yul\":1166:1184   */\n      add\n        /* \"#utility.yul\":1158:1184   */\n      swap1\n      pop\n        /* \"#utility.yul\":1230:1239   */\n      dup2\n        /* \"#utility.yul\":1224:1228   */\n      dup2\n        /* \"#utility.yul\":1220:1240   */\n      sub\n        /* \"#utility.yul\":1216:1217   */\n      0x00\n        /* \"#utility.yul\":1205:1214   */\n      dup4\n        /* \"#utility.yul\":1201:1218   */\n      add\n        /* \"#utility.yul\":1194:1241   */\n      mstore\n        /* \"#utility.yul\":1258:1336   */\n      tag_117\n        /* \"#utility.yul\":1331:1335   */\n      dup2\n        /* \"#utility.yul\":1322:1328   */\n      dup5\n        /* \"#utility.yul\":1258:1336   */\n      tag_83\n      jump\t// in\n    tag_117:\n        /* \"#utility.yul\":1250:1336   */\n      swap1\n      pop\n        /* \"#utility.yul\":1030:1343   */\n      swap3\n      swap2\n      pop\n      pop\n      jump\t// out\n        /* \"#utility.yul\":1349:1426   */\n    tag_84:\n        /* \"#utility.yul\":1386:1393   */\n      0x00\n        /* \"#utility.yul\":1415:1420   */\n      dup2\n        /* \"#utility.yul\":1404:1420   */\n      swap1\n      pop\n        /* \"#utility.yul\":1349:1426   */\n      swap2\n      swap1\n      pop\n      jump\t// out\n        /* \"#utility.yul\":1432:1550   */\n    tag_85:\n        /* \"#utility.yul\":1519:1543   */\n      tag_120\n        /* \"#utility.yul\":1537:1542   */\n      dup2\n        /* \"#utility.yul\":1519:1543   */\n      tag_84\n      jump\t// in\n    tag_120:\n        /* \"#utility.yul\":1514:1517   */\n      dup3\n        /* \"#utility.yul\":1507:1544   */\n      mstore\n        /* \"#utility.yul\":1432:1550   */\n      pop\n      pop\n      jump\t// out\n        /* \"#utility.yul\":1556:1778   */\n    tag_18:\n        /* \"#utility.yul\":1649:1653   */\n      0x00\n        /* \"#utility.yul\":1687:1689   */\n      0x20\n        /* \"#utility.yul\":1676:1685   */\n      dup3\n        /* \"#utility.yul\":1672:1690   */\n      add\n        /* \"#utility.yul\":1664:1690   */\n      swap1\n      pop\n        /* \"#utility.yul\":1700:1771   */\n      tag_122\n        /* \"#utility.yul\":1768:1769   */\n      0x00\n        /* \"#utility.yul\":1757:1766   */\n      dup4\n        /* \"#utility.yul\":1753:1770   */\n      add\n        /* \"#utility.yul\":1744:1750   */\n      dup5\n        /* \"#utility.yul\":1700:1771   */\n      tag_85\n      jump\t// in\n    tag_122:\n        /* \"#utility.yul\":1556:1778   */\n      swap3\n      swap2\n      pop\n      pop\n      jump\t// out\n        /* \"#utility.yul\":1865:1982   */\n    tag_87:\n        /* \"#utility.yul\":1974:1975   */\n      0x00\n        /* \"#utility.yul\":1971:1972   */\n      dup1\n        /* \"#utility.yul\":1964:1976   */\n      revert\n        /* \"#utility.yul\":2111:2237   */\n    tag_89:\n        /* \"#utility.yul\":2148:2155   */\n      0x00\n        /* \"#utility.yul\":2188:2230   */\n      0xffffffffffffffffffffffffffffffffffffffff\n        /* \"#utility.yul\":2181:2186   */\n      dup3\n        /* \"#utility.yul\":2177:2231   */\n      and\n        /* \"#utility.yul\":2166:2231   */\n      swap1\n      pop\n        /* \"#utility.yul\":2111:2237   */\n      swap2\n      swap1\n      pop\n      jump\t// out\n        /* \"#utility.yul\":2243:2339   */\n    tag_90:\n        /* \"#utility.yul\":2280:2287   */\n      0x00\n        /* \"#utility.yul\":2309:2333   */\n      tag_128\n        /* \"#utility.yul\":2327:2332   */\n      dup3\n        /* \"#utility.yul\":2309:2333   */\n      tag_89\n      jump\t// in\n    tag_128:\n        /* \"#utility.yul\":2298:2333   */\n      swap1\n      pop\n        /* \"#utility.yul\":2243:2339   */\n      swap2\n      swap1\n      pop\n      jump\t// out\n        /* \"#utility.yul\":2345:2467   */\n    tag_91:\n        /* \"#utility.yul\":2418:2442   */\n      tag_130\n        /* \"#utility.yul\":2436:2441   */\n      dup2\n        /* \"#utility.yul\":2418:2442   */\n      tag_90\n      jump\t// in\n    tag_130:\n        /* \"#utility.yul\":2411:2416   */\n      dup2\n        /* \"#utility.yul\":2408:2443   */\n      eq\n        /* \"#utility.yul\":2398:2461   */\n      tag_131\n      jumpi\n        /* \"#utility.yul\":2457:2458   */\n      0x00\n        /* \"#utility.yul\":2454:2455   */\n      dup1\n        /* \"#utility.yul\":2447:2459   */\n      revert\n        /* \"#utility.yul\":2398:2461   */\n    tag_131:\n        /* \"#utility.yul\":2345:2467   */\n      pop\n      jump\t// out\n        /* \"#utility.yul\":2473:2612   */\n    tag_92:\n        /* \"#utility.yul\":2519:2524   */\n      0x00\n        /* \"#utility.yul\":2557:2563   */\n      dup2\n        /* \"#utility.yul\":2544:2564   */\n      calldataload\n        /* \"#utility.yul\":2535:2564   */\n      swap1\n      pop\n        /* \"#utility.yul\":2573:2606   */\n      tag_133\n        /* \"#utility.yul\":2600:2605   */\n      dup2\n        /* \"#utility.yul\":2573:2606   */\n      tag_91\n      jump\t// in\n    tag_133:\n        /* \"#utility.yul\":2473:2612   */\n      swap3\n      swap2\n      pop\n      pop\n      jump\t// out\n        /* \"#utility.yul\":2618:2947   */\n    tag_21:\n        /* \"#utility.yul\":2677:2683   */\n      0x00\n        /* \"#utility.yul\":2726:2728   */\n      0x20\n        /* \"#utility.yul\":2714:2723   */\n      dup3\n        /* \"#utility.yul\":2705:2712   */\n      dup5\n        /* \"#utility.yul\":2701:2724   */\n      sub\n        /* \"#utility.yul\":2697:2729   */\n      slt\n        /* \"#utility.yul\":2694:2813   */\n      iszero\n      tag_135\n      jumpi\n        /* \"#utility.yul\":2732:2811   */\n      tag_136\n      tag_87\n      jump\t// in\n    tag_136:\n        /* \"#utility.yul\":2694:2813   */\n    tag_135:\n        /* \"#utility.yul\":2852:2853   */\n      0x00\n        /* \"#utility.yul\":2877:2930   */\n      tag_137\n        /* \"#utility.yul\":2922:2929   */\n      dup5\n        /* \"#utility.yul\":2913:2919   */\n      dup3\n        /* \"#utility.yul\":2902:2911   */\n      dup6\n        /* \"#utility.yul\":2898:2920   */\n      add\n        /* \"#utility.yul\":2877:2930   */\n      tag_92\n      jump\t// in\n    tag_137:\n        /* \"#utility.yul\":2867:2930   */\n      swap2\n      pop\n        /* \"#utility.yul\":2823:2940   */\n      pop\n        /* \"#utility.yul\":2618:2947   */\n      swap3\n      swap2\n      pop\n      pop\n      jump\t// out\n        /* \"#utility.yul\":2953:3075   */\n    tag_93:\n        /* \"#utility.yul\":3026:3050   */\n      tag_139\n        /* \"#utility.yul\":3044:3049   */\n      dup2\n        /* \"#utility.yul\":3026:3050   */\n      tag_84\n      jump\t// in\n    tag_139:\n        /* \"#utility.yul\":3019:3024   */\n      dup2\n        /* \"#utility.yul\":3016:3051   */\n      eq\n        /* \"#utility.yul\":3006:3069   */\n      tag_140\n      jumpi\n        /* \"#utility.yul\":3065:3066   */\n      0x00\n        /* \"#utility.yul\":3062:3063   */\n      dup1\n        /* \"#utility.yul\":3055:3067   */\n      revert\n        /* \"#utility.yul\":3006:3069   */\n    tag_140:\n        /* \"#utility.yul\":2953:3075   */\n      pop\n      jump\t// out\n        /* \"#utility.yul\":3081:3220   */\n    tag_94:\n        /* \"#utility.yul\":3127:3132   */\n      0x00\n        /* \"#utility.yul\":3165:3171   */\n      dup2\n        /* \"#utility.yul\":3152:3172   */\n      calldataload\n        /* \"#utility.yul\":3143:3172   */\n      swap1\n      pop\n        /* \"#utility.yul\":3181:3214   */\n      tag_142\n        /* \"#utility.yul\":3208:3213   */\n      dup2\n        /* \"#utility.yul\":3181:3214   */\n      tag_93\n      jump\t// in\n    tag_142:\n        /* \"#utility.yul\":3081:3220   */\n      swap3\n      swap2\n      pop\n      pop\n      jump\t// out\n        /* \"#utility.yul\":3226:3700   */\n    tag_32:\n        /* \"#utility.yul\":3294:3300   */\n      0x00\n        /* \"#utility.yul\":3302:3308   */\n      dup1\n        /* \"#utility.yul\":3351:3353   */\n      0x40\n        /* \"#utility.yul\":3339:3348   */\n      dup4\n        /* \"#utility.yul\":3330:3337   */\n      dup6\n        /* \"#utility.yul\":3326:3349   */\n      sub\n        /* \"#utility.yul\":3322:3354   */\n      slt\n        /* \"#utility.yul\":3319:3438   */\n      iszero\n      tag_144\n      jumpi\n        /* \"#utility.yul\":3357:3436   */\n      tag_145\n      tag_87\n      jump\t// in\n    tag_145:\n        /* \"#utility.yul\":3319:3438   */\n    tag_144:\n        /* \"#utility.yul\":3477:3478   */\n      0x00\n        /* \"#utility.yul\":3502:3555   */\n      tag_146\n        /* \"#utility.yul\":3547:3554   */\n      dup6\n        /* \"#utility.yul\":3538:3544   */\n      dup3\n        /* \"#utility.yul\":3527:3536   */\n      dup7\n        /* \"#utility.yul\":3523:3545   */\n      add\n        /* \"#utility.yul\":3502:3555   */\n      tag_92\n      jump\t// in\n    tag_146:\n        /* \"#utility.yul\":3492:3555   */\n      swap3\n      pop\n        /* \"#utility.yul\":3448:3565   */\n      pop\n        /* \"#utility.yul\":3604:3606   */\n      0x20\n        /* \"#utility.yul\":3630:3683   */\n      tag_147\n        /* \"#utility.yul\":3675:3682   */\n      dup6\n        /* \"#utility.yul\":3666:3672   */\n      dup3\n        /* \"#utility.yul\":3655:3664   */\n      dup7\n        /* \"#utility.yul\":3651:3673   */\n      add\n        /* \"#utility.yul\":3630:3683   */\n      tag_94\n      jump\t// in\n    tag_147:\n        /* \"#utility.yul\":3620:3683   */\n      swap2\n      pop\n        /* \"#utility.yul\":3575:3693   */\n      pop\n        /* \"#utility.yul\":3226:3700   */\n      swap3\n      pop\n      swap3\n      swap1\n      pop\n      jump\t// out\n        /* \"#utility.yul\":3706:3796   */\n    tag_95:\n        /* \"#utility.yul\":3740:3747   */\n      0x00\n        /* \"#utility.yul\":3783:3788   */\n      dup2\n        /* \"#utility.yul\":3776:3789   */\n      iszero\n        /* \"#utility.yul\":3769:3790   */\n      iszero\n        /* \"#utility.yul\":3758:3790   */\n      swap1\n      pop\n        /* \"#utility.yul\":3706:3796   */\n      swap2\n      swap1\n      pop\n      jump\t// out\n        /* \"#utility.yul\":3802:3911   */\n    tag_96:\n        /* \"#utility.yul\":3883:3904   */\n      tag_150\n        /* \"#utility.yul\":3898:3903   */\n      dup2\n        /* \"#utility.yul\":3883:3904   */\n      tag_95\n      jump\t// in\n    tag_150:\n        /* \"#utility.yul\":3878:3881   */\n      dup3\n        /* \"#utility.yul\":3871:3905   */\n      mstore\n        /* \"#utility.yul\":3802:3911   */\n      pop\n      pop\n      jump\t// out\n        /* \"#utility.yul\":3917:4127   */\n    tag_35:\n        /* \"#utility.yul\":4004:4008   */\n      0x00\n        /* \"#utility.yul\":4042:4044   */\n      0x20\n        /* \"#utility.yul\":4031:4040   */\n      dup3\n        /* \"#utility.yul\":4027:4045   */\n      add\n        /* \"#utility.yul\":4019:4045   */\n      swap1\n      pop\n        /* \"#utility.yul\":4055:4120   */\n      tag_152\n        /* \"#utility.yul\":4117:4118   */\n      0x00\n        /* \"#utility.yul\":4106:4115   */\n      dup4\n        /* \"#utility.yul\":4102:4119   */\n      add\n        /* \"#utility.yul\":4093:4099   */\n      dup5\n        /* \"#utility.yul\":4055:4120   */\n      tag_96\n      jump\t// in\n    tag_152:\n        /* \"#utility.yul\":3917:4127   */\n      swap3\n      swap2\n      pop\n      pop\n      jump\t// out\n        /* \"#utility.yul\":4133:4313   */\n    tag_97:\n        /* \"#utility.yul\":4181:4258   */\n      0x4e487b7100000000000000000000000000000000000000000000000000000000\n        /* \"#utility.yul\":4178:4179   */\n      0x00\n        /* \"#utility.yul\":4171:4259   */\n      mstore\n        /* \"#utility.yul\":4278:4282   */\n      0x22\n        /* \"#utility.yul\":4275:4276   */\n      0x04\n        /* \"#utility.yul\":4268:4283   */\n      mstore\n        /* \"#utility.yul\":4302:4306   */\n      0x24\n        /* \"#utility.yul\":4299:4300   */\n      0x00\n        /* \"#utility.yul\":4292:4307   */\n      revert\n        /* \"#utility.yul\":4319:4639   */\n    tag_41:\n        /* \"#utility.yul\":4363:4369   */\n      0x00\n        /* \"#utility.yul\":4400:4401   */\n      0x02\n        /* \"#utility.yul\":4394:4398   */\n      dup3\n        /* \"#utility.yul\":4390:4402   */\n      div\n        /* \"#utility.yul\":4380:4402   */\n      swap1\n      pop\n        /* \"#utility.yul\":4447:4448   */\n      0x01\n        /* \"#utility.yul\":4441:4445   */\n      dup3\n        /* \"#utility.yul\":4437:4449   */\n      and\n        /* \"#utility.yul\":4468:4486   */\n      dup1\n        /* \"#utility.yul\":4458:4539   */\n      tag_155\n      jumpi\n        /* \"#utility.yul\":4524:4528   */\n      0x7f\n        /* \"#utility.yul\":4516:4522   */\n      dup3\n        /* \"#utility.yul\":4512:4529   */\n      and\n        /* \"#utility.yul\":4502:4529   */\n      swap2\n      pop\n        /* \"#utility.yul\":4458:4539   */\n    tag_155:\n        /* \"#utility.yul\":4586:4588   */\n      0x20\n        /* \"#utility.yul\":4578:4584   */\n      dup3\n        /* \"#utility.yul\":4575:4589   */\n      lt\n        /* \"#utility.yul\":4555:4573   */\n      dup2\n        /* \"#utility.yul\":4552:4590   */\n      sub\n        /* \"#utility.yul\":4549:4633   */\n      tag_156\n      jumpi\n        /* \"#utility.yul\":4605:4623   */\n      tag_157\n      tag_97\n      jump\t// in\n    tag_157:\n        /* \"#utility.yul\":4549:4633   */\n    tag_156:\n        /* \"#utility.yul\":4370:4639   */\n      pop\n        /* \"#utility.yul\":4319:4639   */\n      swap2\n      swap1\n      pop\n      jump\t// out\n        /* \"#utility.yul\":4645:4825   */\n    tag_98:\n        /* \"#utility.yul\":4693:4770   */\n      0x4e487b7100000000000000000000000000000000000000000000000000000000\n        /* \"#utility.yul\":4690:4691   */\n      0x00\n        /* \"#utility.yul\":4683:4771   */\n      mstore\n        /* \"#utility.yul\":4790:4794   */\n      0x11\n        /* \"#utility.yul\":4787:4788   */\n      0x04\n        /* \"#utility.yul\":4780:4795   */\n      mstore\n        /* \"#utility.yul\":4814:4818   */\n      0x24\n        /* \"#utility.yul\":4811:4812   */\n      0x00\n        /* \"#utility.yul\":4804:4819   */\n      revert\n        /* \"#utility.yul\":4831:5025   */\n    tag_65:\n        /* \"#utility.yul\":4871:4875   */\n      0x00\n        /* \"#utility.yul\":4891:4911   */\n      tag_160\n        /* \"#utility.yul\":4909:4910   */\n      dup3\n        /* \"#utility.yul\":4891:4911   */\n      tag_84\n      jump\t// in\n    tag_160:\n        /* \"#utility.yul\":4886:4911   */\n      swap2\n      pop\n        /* \"#utility.yul\":4925:4945   */\n      tag_161\n        /* \"#utility.yul\":4943:4944   */\n      dup4\n        /* \"#utility.yul\":4925:4945   */\n      tag_84\n      jump\t// in\n    tag_161:\n        /* \"#utility.yul\":4920:4945   */\n      swap3\n      pop\n        /* \"#utility.yul\":4969:4970   */\n      dup3\n        /* \"#utility.yul\":4966:4967   */\n      dup3\n        /* \"#utility.yul\":4962:4971   */\n      sub\n        /* \"#utility.yul\":4954:4971   */\n      swap1\n      pop\n        /* \"#utility.yul\":4993:4994   */\n      dup2\n        /* \"#utility.yul\":4987:4991   */\n      dup2\n        /* \"#utility.yul\":4984:4995   */\n      gt\n        /* \"#utility.yul\":4981:5018   */\n      iszero\n      tag_162\n      jumpi\n        /* \"#utility.yul\":4998:5016   */\n      tag_163\n      tag_98\n      jump\t// in\n    tag_163:\n        /* \"#utility.yul\":4981:5018   */\n    tag_162:\n        /* \"#utility.yul\":4831:5025   */\n      swap3\n      swap2\n      pop\n      pop\n      jump\t// out\n        /* \"#utility.yul\":5031:5222   */\n    tag_68:\n        /* \"#utility.yul\":5071:5074   */\n      0x00\n        /* \"#utility.yul\":5090:5110   */\n      tag_165\n        /* \"#utility.yul\":5108:5109   */\n      dup3\n        /* \"#utility.yul\":5090:5110   */\n      tag_84\n      jump\t// in\n    tag_165:\n        /* \"#utility.yul\":5085:5110   */\n      swap2\n      pop\n        /* \"#utility.yul\":5124:5144   */\n      tag_166\n        /* \"#utility.yul\":5142:5143   */\n      dup4\n        /* \"#utility.yul\":5124:5144   */\n      tag_84\n      jump\t// in\n    tag_166:\n        /* \"#utility.yul\":5119:5144   */\n      swap3\n      pop\n        /* \"#utility.yul\":5167:5168   */\n      dup3\n        /* \"#utility.yul\":5164:5165   */\n      dup3\n        /* \"#utility.yul\":5160:5169   */\n      add\n        /* \"#utility.yul\":5153:5169   */\n      swap1\n      pop\n        /* \"#utility.yul\":5188:5191   */\n      dup1\n        /* \"#utility.yul\":5185:5186   */\n      dup3\n        /* \"#utility.yul\":5182:5192   */\n      gt\n        /* \"#utility.yul\":5179:5215   */\n      iszero\n      tag_167\n      jumpi\n        /* \"#utility.yul\":5195:5213   */\n      tag_168\n      tag_98\n      jump\t// in\n    tag_168:\n        /* \"#utility.yul\":5179:5215   */\n    tag_167:\n        /* \"#utility.yul\":5031:5222   */\n      swap3\n      swap2\n      pop\n      pop\n      jump\t// out\n        /* \"#utility.yul\":5228:5330   */\n    tag_99:\n        /* \"#utility.yul\":5270:5278   */\n      0x00\n        /* \"#utility.yul\":5317:5322   */\n      dup2\n        /* \"#utility.yul\":5314:5315   */\n      0x01\n        /* \"#utility.yul\":5310:5323   */\n      shr\n        /* \"#utility.yul\":5289:5323   */\n      swap1\n      pop\n        /* \"#utility.yul\":5228:5330   */\n      swap2\n      swap1\n      pop\n      jump\t// out\n        /* \"#utility.yul\":5336:6184   */\n    tag_100:\n        /* \"#utility.yul\":5397:5402   */\n      0x00\n        /* \"#utility.yul\":5404:5408   */\n      dup1\n        /* \"#utility.yul\":5428:5434   */\n      dup3\n        /* \"#utility.yul\":5419:5434   */\n      swap2\n      pop\n        /* \"#utility.yul\":5452:5457   */\n      dup4\n        /* \"#utility.yul\":5443:5457   */\n      swap1\n      pop\n        /* \"#utility.yul\":5466:6178   */\n    tag_171:\n        /* \"#utility.yul\":5487:5488   */\n      0x01\n        /* \"#utility.yul\":5477:5485   */\n      dup6\n        /* \"#utility.yul\":5474:5489   */\n      gt\n        /* \"#utility.yul\":5466:6178   */\n      iszero\n      tag_173\n      jumpi\n        /* \"#utility.yul\":5582:5586   */\n      dup1\n        /* \"#utility.yul\":5577:5580   */\n      dup7\n        /* \"#utility.yul\":5573:5587   */\n      div\n        /* \"#utility.yul\":5567:5571   */\n      dup2\n        /* \"#utility.yul\":5564:5588   */\n      gt\n        /* \"#utility.yul\":5561:5611   */\n      iszero\n      tag_174\n      jumpi\n        /* \"#utility.yul\":5591:5609   */\n      tag_175\n      tag_98\n      jump\t// in\n    tag_175:\n        /* \"#utility.yul\":5561:5611   */\n    tag_174:\n        /* \"#utility.yul\":5641:5642   */\n      0x01\n        /* \"#utility.yul\":5631:5639   */\n      dup6\n        /* \"#utility.yul\":5627:5643   */\n      and\n        /* \"#utility.yul\":5624:6075   */\n      iszero\n      tag_176\n      jumpi\n        /* \"#utility.yul\":6056:6060   */\n      dup1\n        /* \"#utility.yul\":6049:6054   */\n      dup3\n        /* \"#utility.yul\":6045:6061   */\n      mul\n        /* \"#utility.yul\":6036:6061   */\n      swap2\n      pop\n        /* \"#utility.yul\":5624:6075   */\n    tag_176:\n        /* \"#utility.yul\":6106:6110   */\n      dup1\n        /* \"#utility.yul\":6100:6104   */\n      dup2\n        /* \"#utility.yul\":6096:6111   */\n      mul\n        /* \"#utility.yul\":6088:6111   */\n      swap1\n      pop\n        /* \"#utility.yul\":6136:6168   */\n      tag_177\n        /* \"#utility.yul\":6159:6167   */\n      dup6\n        /* \"#utility.yul\":6136:6168   */\n      tag_99\n      jump\t// in\n    tag_177:\n        /* \"#utility.yul\":6124:6168   */\n      swap5\n      pop\n        /* \"#utility.yul\":5466:6178   */\n      jump(tag_171)\n    tag_173:\n        /* \"#utility.yul\":5336:6184   */\n      swap5\n      pop\n      swap5\n      swap3\n      pop\n      pop\n      pop\n      jump\t// out\n        /* \"#utility.yul\":6190:7263   */\n    tag_101:\n        /* \"#utility.yul\":6244:6249   */\n      0x00\n        /* \"#utility.yul\":6435:6443   */\n      dup3\n        /* \"#utility.yul\":6425:6465   */\n      tag_179\n      jumpi\n        /* \"#utility.yul\":6456:6457   */\n      0x01\n        /* \"#utility.yul\":6447:6457   */\n      swap1\n      pop\n        /* \"#utility.yul\":6458:6463   */\n      jump(tag_178)\n        /* \"#utility.yul\":6425:6465   */\n    tag_179:\n        /* \"#utility.yul\":6484:6488   */\n      dup2\n        /* \"#utility.yul\":6474:6510   */\n      tag_180\n      jumpi\n        /* \"#utility.yul\":6501:6502   */\n      0x00\n        /* \"#utility.yul\":6492:6502   */\n      swap1\n      pop\n        /* \"#utility.yul\":6503:6508   */\n      jump(tag_178)\n        /* \"#utility.yul\":6474:6510   */\n    tag_180:\n        /* \"#utility.yul\":6570:6574   */\n      dup2\n        /* \"#utility.yul\":6618:6619   */\n      0x01\n        /* \"#utility.yul\":6613:6640   */\n      dup2\n      eq\n      tag_182\n      jumpi\n        /* \"#utility.yul\":6654:6655   */\n      0x02\n        /* \"#utility.yul\":6649:6840   */\n      dup2\n      eq\n      tag_183\n      jumpi\n        /* \"#utility.yul\":6563:6840   */\n      jump(tag_181)\n        /* \"#utility.yul\":6613:6640   */\n    tag_182:\n        /* \"#utility.yul\":6631:6632   */\n      0x01\n        /* \"#utility.yul\":6622:6632   */\n      swap2\n      pop\n        /* \"#utility.yul\":6633:6638   */\n      pop\n      jump(tag_178)\n        /* \"#utility.yul\":6649:6840   */\n    tag_183:\n        /* \"#utility.yul\":6694:6697   */\n      0xff\n        /* \"#utility.yul\":6684:6692   */\n      dup5\n        /* \"#utility.yul\":6681:6698   */\n      gt\n        /* \"#utility.yul\":6678:6721   */\n      iszero\n      tag_184\n      jumpi\n        /* \"#utility.yul\":6701:6719   */\n      tag_185\n      tag_98\n      jump\t// in\n    tag_185:\n        /* \"#utility.yul\":6678:6721   */\n    tag_184:\n        /* \"#utility.yul\":6750:6758   */\n      dup4\n        /* \"#utility.yul\":6747:6748   */\n      0x02\n        /* \"#utility.yul\":6743:6759   */\n      exp\n        /* \"#utility.yul\":6734:6759   */\n      swap2\n      pop\n        /* \"#utility.yul\":6785:6788   */\n      dup5\n        /* \"#utility.yul\":6778:6783   */\n      dup3\n        /* \"#utility.yul\":6775:6789   */\n      gt\n        /* \"#utility.yul\":6772:6812   */\n      iszero\n      tag_186\n      jumpi\n        /* \"#utility.yul\":6792:6810   */\n      tag_187\n      tag_98\n      jump\t// in\n    tag_187:\n        /* \"#utility.yul\":6772:6812   */\n    tag_186:\n        /* \"#utility.yul\":6825:6830   */\n      pop\n      jump(tag_178)\n        /* \"#utility.yul\":6563:6840   */\n    tag_181:\n      pop\n        /* \"#utility.yul\":6949:6951   */\n      0x20\n        /* \"#utility.yul\":6939:6947   */\n      dup4\n        /* \"#utility.yul\":6936:6952   */\n      lt\n        /* \"#utility.yul\":6930:6933   */\n      0x0133\n        /* \"#utility.yul\":6924:6928   */\n      dup4\n        /* \"#utility.yul\":6921:6934   */\n      lt\n        /* \"#utility.yul\":6917:6953   */\n      and\n        /* \"#utility.yul\":6899:6901   */\n      0x4e\n        /* \"#utility.yul\":6889:6897   */\n      dup5\n        /* \"#utility.yul\":6886:6902   */\n      lt\n        /* \"#utility.yul\":6881:6883   */\n      0x0b\n        /* \"#utility.yul\":6875:6879   */\n      dup5\n        /* \"#utility.yul\":6872:6884   */\n      lt\n        /* \"#utility.yul\":6868:6903   */\n      and\n        /* \"#utility.yul\":6852:6963   */\n      or\n        /* \"#utility.yul\":6849:7095   */\n      iszero\n      tag_188\n      jumpi\n        /* \"#utility.yul\":7005:7013   */\n      dup3\n        /* \"#utility.yul\":6999:7003   */\n      dup3\n        /* \"#utility.yul\":6995:7014   */\n      exp\n        /* \"#utility.yul\":6986:7014   */\n      swap1\n      pop\n        /* \"#utility.yul\":7040:7043   */\n      dup4\n        /* \"#utility.yul\":7033:7038   */\n      dup2\n        /* \"#utility.yul\":7030:7044   */\n      gt\n        /* \"#utility.yul\":7027:7067   */\n      iszero\n      tag_189\n      jumpi\n        /* \"#utility.yul\":7047:7065   */\n      tag_190\n      tag_98\n      jump\t// in\n    tag_190:\n        /* \"#utility.yul\":7027:7067   */\n    tag_189:\n        /* \"#utility.yul\":7080:7085   */\n      jump(tag_178)\n        /* \"#utility.yul\":6849:7095   */\n    tag_188:\n        /* \"#utility.yul\":7120:7162   */\n      tag_191\n        /* \"#utility.yul\":7158:7161   */\n      dup5\n        /* \"#utility.yul\":7148:7156   */\n      dup5\n        /* \"#utility.yul\":7142:7146   */\n      dup5\n        /* \"#utility.yul\":7139:7140   */\n      0x01\n        /* \"#utility.yul\":7120:7162   */\n      tag_100\n      jump\t// in\n    tag_191:\n        /* \"#utility.yul\":7105:7162   */\n      swap3\n      pop\n      swap1\n      pop\n        /* \"#utility.yul\":7194:7198   */\n      dup2\n        /* \"#utility.yul\":7189:7192   */\n      dup5\n        /* \"#utility.yul\":7185:7199   */\n      div\n        /* \"#utility.yul\":7178:7183   */\n      dup2\n        /* \"#utility.yul\":7175:7200   */\n      gt\n        /* \"#utility.yul\":7172:7223   */\n      iszero\n      tag_192\n      jumpi\n        /* \"#utility.yul\":7203:7221   */\n      tag_193\n      tag_98\n      jump\t// in\n    tag_193:\n        /* \"#utility.yul\":7172:7223   */\n    tag_192:\n        /* \"#utility.yul\":7252:7256   */\n      dup2\n        /* \"#utility.yul\":7245:7250   */\n      dup2\n        /* \"#utility.yul\":7241:7257   */\n      mul\n        /* \"#utility.yul\":7232:7257   */\n      swap1\n      pop\n        /* \"#utility.yul\":6190:7263   */\n    tag_178:\n      swap4\n      swap3\n      pop\n      pop\n      pop\n      jump\t// out\n        /* \"#utility.yul\":7269:7554   */\n    tag_72:\n        /* \"#utility.yul\":7329:7334   */\n      0x00\n        /* \"#utility.yul\":7353:7376   */\n      tag_195\n        /* \"#utility.yul\":7371:7375   */\n      dup3\n        /* \"#utility.yul\":7353:7376   */\n      tag_84\n      jump\t// in\n    tag_195:\n        /* \"#utility.yul\":7345:7376   */\n      swap2\n      pop\n        /* \"#utility.yul\":7397:7424   */\n      tag_196\n        /* \"#utility.yul\":7415:7423   */\n      dup4\n        /* \"#utility.yul\":7397:7424   */\n      tag_84\n      jump\t// in\n    tag_196:\n        /* \"#utility.yul\":7385:7424   */\n      swap3\n      pop\n        /* \"#utility.yul\":7443:7547   */\n      tag_197\n        /* \"#utility.yul\":7480:7546   */\n      0xffffffffffffffffffffffffffffffffffffffffffffffffffffffffffffffff\n        /* \"#utility.yul\":7470:7478   */\n      dup5\n        /* \"#utility.yul\":7464:7468   */\n      dup5\n        /* \"#utility.yul\":7443:7547   */\n      tag_101\n      jump\t// in\n    tag_197:\n        /* \"#utility.yul\":7434:7547   */\n      swap1\n      pop\n        /* \"#utility.yul\":7269:7554   */\n      swap3\n      swap2\n      pop\n      pop\n      jump\t// out\n        /* \"#utility.yul\":7560:7740   */\n    tag_102:\n        /* \"#utility.yul\":7608:7685   */\n      0x4e487b7100000000000000000000000000000000000000000000000000000000\n        /* \"#utility.yul\":7605:7606   */\n      0x00\n        /* \"#utility.yul\":7598:7686   */\n      mstore\n        /* \"#utility.yul\":7705:7709   */\n      0x12\n        /* \"#utility.yul\":7702:7703   */\n      0x04\n        /* \"#utility.yul\":7695:7710   */\n      mstore\n        /* \"#utility.yul\":7729:7733   */\n      0x24\n        /* \"#utility.yul\":7726:7727   */\n      0x00\n        /* \"#utility.yul\":7719:7734   */\n      revert\n        /* \"#utility.yul\":7746:7931   */\n    tag_74:\n        /* \"#utility.yul\":7786:7787   */\n      0x00\n        /* \"#utility.yul\":7803:7823   */\n      tag_200\n        /* \"#utility.yul\":7821:7822   */\n      dup3\n        /* \"#utility.yul\":7803:7823   */\n      tag_84\n      jump\t// in\n    tag_200:\n        /* \"#utility.yul\":7798:7823   */\n      swap2\n      pop\n        /* \"#utility.yul\":7837:7857   */\n      tag_201\n        /* \"#utility.yul\":7855:7856   */\n      dup4\n        /* \"#utility.yul\":7837:7857   */\n      tag_84\n      jump\t// in\n    tag_201:\n        /* \"#utility.yul\":7832:7857   */\n      swap3\n      pop\n        /* \"#utility.yul\":7876:7877   */\n      dup3\n        /* \"#utility.yul\":7866:7901   */\n      tag_202\n      jumpi\n        /* \"#utility.yul\":7881:7899   */\n      tag_203\n      tag_102\n      jump\t// in\n    tag_203:\n        /* \"#utility.yul\":7866:7901   */\n    tag_202:\n        /* \"#utility.yul\":7923:7924   */\n      dup3\n        /* \"#utility.yul\":7920:7921   */\n      dup3\n        /* \"#utility.yul\":7916:7925   */\n      div\n        /* \"#utility.yul\":7911:7925   */\n      swap1\n      pop\n        /* \"#utility.yul\":7746:7931   */\n      swap3\n      swap2\n      pop\n      pop\n      jump\t// out\n        /* \"#utility.yul\":7937:8347   */\n    tag_78:\n        /* \"#utility.yul\":7977:7984   */\n      0x00\n        /* \"#utility.yul\":8000:8020   */\n      tag_205\n        /* \"#utility.yul\":8018:8019   */\n      dup3\n        /* \"#utility.yul\":8000:8020   */\n      tag_84\n      jump\t// in\n    tag_205:\n        /* \"#utility.yul\":7995:8020   */\n      swap2\n      pop\n        /* \"#utility.yul\":8034:8054   */\n      tag_206\n        /* \"#utility.yul\":8052:8053   */\n      dup4\n        /* \"#utility.yul\":8034:8054   */\n      tag_84\n      jump\t// in\n    tag_206:\n        /* \"#utility.yul\":8029:8054   */\n      swap3\n      pop\n        /* \"#utility.yul\":8089:8090   */\n      dup3\n        /* \"#utility.yul\":8086:8087   */\n      dup3\n        /* \"#utility.yul\":8082:8091   */\n      mul\n        /* \"#utility.yul\":8111:8141   */\n      tag_207\n        /* \"#utility.yul\":8129:8140   */\n      dup2\n        /* \"#utility.yul\":8111:8141   */\n      tag_84\n      jump\t// in\n    tag_207:\n        /* \"#utility.yul\":8100:8141   */\n      swap2\n      pop\n        /* \"#utility.yul\":8290:8291   */\n      dup3\n        /* \"#utility.yul\":8281:8288   */\n      dup3\n        /* \"#utility.yul\":8277:8292   */\n      div\n        /* \"#utility.yul\":8274:8275   */\n      dup5\n        /* \"#utility.yul\":8271:8293   */\n      eq\n        /* \"#utility.yul\":8251:8252   */\n      dup4\n        /* \"#utility.yul\":8244:8253   */\n      iszero\n        /* \"#utility.yul\":8224:8307   */\n      or\n        /* \"#utility.yul\":8201:8340   */\n      tag_208\n      jumpi\n        /* \"#utility.yul\":8320:8338   */\n      tag_209\n      tag_98\n      jump\t// in\n    tag_209:\n        /* \"#utility.yul\":8201:8340   */\n    tag_208:\n        /* \"#utility.yul\":7985:8347   */\n      pop\n        /* \"#utility.yul\":7937:8347   */\n      swap3\n      swap2\n      pop\n      pop\n      jump\t// out\n\n    auxdata: 0xa2646970667358221220785745cb47b0151a2c0b6490ea43f7898f956abc0c63fa5ea4a99ed0be8ea45c64736f6c63430008110033\n}\n",
				"bytecode": {
					"linkReferences": {},
					"object": "60806040523480156200001157600080fd5b506040518060400160405280600b81526020017f455243323020546f6b656e000000000000000000000000000000000000000000815250600490816200005891906200037e565b506040518060400160405280600681526020017f4552432d544b0000000000000000000000000000000000000000000000000000815250600590816200009f91906200037e565b50601260038190555069d3c21bcecceda10000006002819055506002546000803373ffffffffffffffffffffffffffffffffffffffff1673ffffffffffffffffffffffffffffffffffffffff1681526020019081526020016000208190555062000465565b600081519050919050565b7f4e487b7100000000000000000000000000000000000000000000000000000000600052604160045260246000fd5b7f4e487b7100000000000000000000000000000000000000000000000000000000600052602260045260246000fd5b600060028204905060018216806200018657607f821691505b6020821081036200019c576200019b6200013e565b5b50919050565b60008190508160005260206000209050919050565b60006020601f8301049050919050565b600082821b905092915050565b600060088302620002067fffffffffffffffffffffffffffffffffffffffffffffffffffffffffffffffff82620001c7565b620002128683620001c7565b95508019841693508086168417925050509392505050565b6000819050919050565b6000819050919050565b60006200025f6200025962000253846200022a565b62000234565b6200022a565b9050919050565b6000819050919050565b6200027b836200023e565b620002936200028a8262000266565b848454620001d4565b825550505050565b600090565b620002aa6200029b565b620002b781848462000270565b505050565b5b81811015620002df57620002d3600082620002a0565b600181019050620002bd565b5050565b601f8211156200032e57620002f881620001a2565b6200030384620001b7565b8101602085101562000313578190505b6200032b6200032285620001b7565b830182620002bc565b50505b505050565b600082821c905092915050565b6000620003536000198460080262000333565b1980831691505092915050565b60006200036e838362000340565b9150826002028217905092915050565b620003898262000104565b67ffffffffffffffff811115620003a557620003a46200010f565b5b620003b182546200016d565b620003be828285620002e3565b600060209050601f831160018114620003f65760008415620003e1578287015190505b620003ed858262000360565b8655506200045d565b601f1984166200040686620001a2565b60005b82811015620004305784890151825560018201915060208501945060208101905062000409565b868310156200045057848901516200044c601f89168262000340565b8355505b6001600288020188555050505b505050505050565b610ae080620004756000396000f3fe608060405234801561001057600080fd5b506004361061007d5760003560e01c806370a082311161005b57806370a08231146100da57806395d89b411461010a578063a9059cbb14610128578063e4997dc5146101585761007d565b806306fdde031461008257806318160ddd146100a05780634838d165146100be575b600080fd5b61008a610174565b604051610097919061060b565b60405180910390f35b6100a8610206565b6040516100b59190610646565b60405180910390f35b6100d860048036038101906100d391906106c4565b610210565b005b6100f460048036038101906100ef91906106c4565b61026a565b6040516101019190610646565b60405180910390f35b610112610319565b60405161011f919061060b565b60405180910390f35b610142600480360381019061013d919061071d565b6103ab565b60405161014f9190610778565b60405180910390f35b610172600480360381019061016d91906106c4565b6104dc565b005b606060048054610183906107c2565b80601f01602080910402602001604051908101604052809291908181526020018280546101af906107c2565b80156101fc5780601f106101d1576101008083540402835291602001916101fc565b820191906000526020600020905b8154815290600101906020018083116101df57829003601f168201915b5050505050905090565b6000600254905090565b60018060008373ffffffffffffffffffffffffffffffffffffffff1673ffffffffffffffffffffffffffffffffffffffff16815260200190815260200160002060006101000a81548160ff02191690831515021790555050565b6000600160008373ffffffffffffffffffffffffffffffffffffffff1673ffffffffffffffffffffffffffffffffffffffff16815260200190815260200160002060009054906101000a900460ff16156102c75760009050610314565b6103116000808473ffffffffffffffffffffffffffffffffffffffff1673ffffffffffffffffffffffffffffffffffffffff16815260200190815260200160002054600354610537565b90505b919050565b606060058054610328906107c2565b80601f0160208091040260200160405190810160405280929190818152602001828054610354906107c2565b80156103a15780601f10610376576101008083540402835291602001916103a1565b820191906000526020600020905b81548152906001019060200180831161038457829003601f168201915b5050505050905090565b6000808210806104035750816104016000803373ffffffffffffffffffffffffffffffffffffffff1673ffffffffffffffffffffffffffffffffffffffff16815260200190815260200160002054600354610537565b105b1561041157600090506104d6565b61041d82600354610559565b6000803373ffffffffffffffffffffffffffffffffffffffff1673ffffffffffffffffffffffffffffffffffffffff168152602001908152602001600020600082825461046a9190610822565b9250508190555061047d82600354610559565b6000808573ffffffffffffffffffffffffffffffffffffffff1673ffffffffffffffffffffffffffffffffffffffff16815260200190815260200160002060008282546104ca9190610856565b92505081905550600190505b92915050565b6000600160008373ffffffffffffffffffffffffffffffffffffffff1673ffffffffffffffffffffffffffffffffffffffff16815260200190815260200160002060006101000a81548160ff02191690831515021790555050565b600081600a61054691906109bd565b836105519190610a37565b905092915050565b600081600a61056891906109bd565b836105739190610a68565b905092915050565b600081519050919050565b600082825260208201905092915050565b60005b838110156105b557808201518184015260208101905061059a565b60008484015250505050565b6000601f19601f8301169050919050565b60006105dd8261057b565b6105e78185610586565b93506105f7818560208601610597565b610600816105c1565b840191505092915050565b6000602082019050818103600083015261062581846105d2565b905092915050565b6000819050919050565b6106408161062d565b82525050565b600060208201905061065b6000830184610637565b92915050565b600080fd5b600073ffffffffffffffffffffffffffffffffffffffff82169050919050565b600061069182610666565b9050919050565b6106a181610686565b81146106ac57600080fd5b50565b6000813590506106be81610698565b92915050565b6000602082840312156106da576106d9610661565b5b60006106e8848285016106af565b91505092915050565b6106fa8161062d565b811461070557600080fd5b50565b600081359050610717816106f1565b92915050565b6000806040838503121561073457610733610661565b5b6000610742858286016106af565b925050602061075385828601610708565b9150509250929050565b60008115159050919050565b6107728161075d565b82525050565b600060208201905061078d6000830184610769565b92915050565b7f4e487b7100000000000000000000000000000000000000000000000000000000600052602260045260246000fd5b600060028204905060018216806107da57607f821691505b6020821081036107ed576107ec610793565b5b50919050565b7f4e487b7100000000000000000000000000000000000000000000000000000000600052601160045260246000fd5b600061082d8261062d565b91506108388361062d565b92508282039050818111156108505761084f6107f3565b5b92915050565b60006108618261062d565b915061086c8361062d565b9250828201905080821115610884576108836107f3565b5b92915050565b60008160011c9050919050565b6000808291508390505b60018511156108e1578086048111156108bd576108bc6107f3565b5b60018516156108cc5780820291505b80810290506108da8561088a565b94506108a1565b94509492505050565b6000826108fa57600190506109b6565b8161090857600090506109b6565b816001811461091e576002811461092857610957565b60019150506109b6565b60ff84111561093a576109396107f3565b5b8360020a915084821115610951576109506107f3565b5b506109b6565b5060208310610133831016604e8410600b841016171561098c5782820a905083811115610987576109866107f3565b5b6109b6565b6109998484846001610897565b925090508184048111156109b0576109af6107f3565b5b81810290505b9392505050565b60006109c88261062d565b91506109d38361062d565b9250610a007fffffffffffffffffffffffffffffffffffffffffffffffffffffffffffffffff84846108ea565b905092915050565b7f4e487b7100000000000000000000000000000000000000000000000000000000600052601260045260246000fd5b6000610a428261062d565b9150610a4d8361062d565b925082610a5d57610a5c610a08565b5b828204905092915050565b6000610a738261062d565b9150610a7e8361062d565b9250828202610a8c8161062d565b91508282048414831517610aa357610aa26107f3565b5b509291505056fea2646970667358221220785745cb47b0151a2c0b6490ea43f7898f956abc0c63fa5ea4a99ed0be8ea45c64736f6c63430008110033",
					"opcodes": "PUSH1 0x80 PUSH1 0x40 MSTORE CALLVALUE DUP1 ISZERO PUSH3 0x11 JUMPI PUSH1 0x0 DUP1 REVERT JUMPDEST POP PUSH1 0x40 MLOAD DUP1 PUSH1 0x40 ADD PUSH1 0x40 MSTORE DUP1 PUSH1 0xB DUP2 MSTORE PUSH1 0x20 ADD PUSH32 0x455243323020546F6B656E000000000000000000000000000000000000000000 DUP2 MSTORE POP PUSH1 0x4 SWAP1 DUP2 PUSH3 0x58 SWAP2 SWAP1 PUSH3 0x37E JUMP JUMPDEST POP PUSH1 0x40 MLOAD DUP1 PUSH1 0x40 ADD PUSH1 0x40 MSTORE DUP1 PUSH1 0x6 DUP2 MSTORE PUSH1 0x20 ADD PUSH32 0x4552432D544B0000000000000000000000000000000000000000000000000000 DUP2 MSTORE POP PUSH1 0x5 SWAP1 DUP2 PUSH3 0x9F SWAP2 SWAP1 PUSH3 0x37E JUMP JUMPDEST POP PUSH1 0x12 PUSH1 0x3 DUP2 SWAP1 SSTORE POP PUSH10 0xD3C21BCECCEDA1000000 PUSH1 0x2 DUP2 SWAP1 SSTORE POP PUSH1 0x2 SLOAD PUSH1 0x0 DUP1 CALLER PUSH20 0xFFFFFFFFFFFFFFFFFFFFFFFFFFFFFFFFFFFFFFFF AND PUSH20 0xFFFFFFFFFFFFFFFFFFFFFFFFFFFFFFFFFFFFFFFF AND DUP2 MSTORE PUSH1 0x20 ADD SWAP1 DUP2 MSTORE PUSH1 0x20 ADD PUSH1 0x0 KECCAK256 DUP2 SWAP1 SSTORE POP PUSH3 0x465 JUMP JUMPDEST PUSH1 0x0 DUP2 MLOAD SWAP1 POP SWAP2 SWAP1 POP JUMP JUMPDEST PUSH32 0x4E487B7100000000000000000000000000000000000000000000000000000000 PUSH1 0x0 MSTORE PUSH1 0x41 PUSH1 0x4 MSTORE PUSH1 0x24 PUSH1 0x0 REVERT JUMPDEST PUSH32 0x4E487B7100000000000000000000000000000000000000000000000000000000 PUSH1 0x0 MSTORE PUSH1 0x22 PUSH1 0x4 MSTORE PUSH1 0x24 PUSH1 0x0 REVERT JUMPDEST PUSH1 0x0 PUSH1 0x2 DUP3 DIV SWAP1 POP PUSH1 0x1 DUP3 AND DUP1 PUSH3 0x186 JUMPI PUSH1 0x7F DUP3 AND SWAP2 POP JUMPDEST PUSH1 0x20 DUP3 LT DUP2 SUB PUSH3 0x19C JUMPI PUSH3 0x19B PUSH3 0x13E JUMP JUMPDEST JUMPDEST POP SWAP2 SWAP1 POP JUMP JUMPDEST PUSH1 0x0 DUP2 SWAP1 POP DUP2 PUSH1 0x0 MSTORE PUSH1 0x20 PUSH1 0x0 KECCAK256 SWAP1 POP SWAP2 SWAP1 POP JUMP JUMPDEST PUSH1 0x0 PUSH1 0x20 PUSH1 0x1F DUP4 ADD DIV SWAP1 POP SWAP2 SWAP1 POP JUMP JUMPDEST PUSH1 0x0 DUP3 DUP3 SHL SWAP1 POP SWAP3 SWAP2 POP POP JUMP JUMPDEST PUSH1 0x0 PUSH1 0x8 DUP4 MUL PUSH3 0x206 PUSH32 0xFFFFFFFFFFFFFFFFFFFFFFFFFFFFFFFFFFFFFFFFFFFFFFFFFFFFFFFFFFFFFFFF DUP3 PUSH3 0x1C7 JUMP JUMPDEST PUSH3 0x212 DUP7 DUP4 PUSH3 0x1C7 JUMP JUMPDEST SWAP6 POP DUP1 NOT DUP5 AND SWAP4 POP DUP1 DUP7 AND DUP5 OR SWAP3 POP POP POP SWAP4 SWAP3 POP POP POP JUMP JUMPDEST PUSH1 0x0 DUP2 SWAP1 POP SWAP2 SWAP1 POP JUMP JUMPDEST PUSH1 0x0 DUP2 SWAP1 POP SWAP2 SWAP1 POP JUMP JUMPDEST PUSH1 0x0 PUSH3 0x25F PUSH3 0x259 PUSH3 0x253 DUP5 PUSH3 0x22A JUMP JUMPDEST PUSH3 0x234 JUMP JUMPDEST PUSH3 0x22A JUMP JUMPDEST SWAP1 POP SWAP2 SWAP1 POP JUMP JUMPDEST PUSH1 0x0 DUP2 SWAP1 POP SWAP2 SWAP1 POP JUMP JUMPDEST PUSH3 0x27B DUP4 PUSH3 0x23E JUMP JUMPDEST PUSH3 0x293 PUSH3 0x28A DUP3 PUSH3 0x266 JUMP JUMPDEST DUP5 DUP5 SLOAD PUSH3 0x1D4 JUMP JUMPDEST DUP3 SSTORE POP POP POP POP JUMP JUMPDEST PUSH1 0x0 SWAP1 JUMP JUMPDEST PUSH3 0x2AA PUSH3 0x29B JUMP JUMPDEST PUSH3 0x2B7 DUP2 DUP5 DUP5 PUSH3 0x270 JUMP JUMPDEST POP POP POP JUMP JUMPDEST JUMPDEST DUP2 DUP2 LT ISZERO PUSH3 0x2DF JUMPI PUSH3 0x2D3 PUSH1 0x0 DUP3 PUSH3 0x2A0 JUMP JUMPDEST PUSH1 0x1 DUP2 ADD SWAP1 POP PUSH3 0x2BD JUMP JUMPDEST POP POP JUMP JUMPDEST PUSH1 0x1F DUP3 GT ISZERO PUSH3 0x32E JUMPI PUSH3 0x2F8 DUP2 PUSH3 0x1A2 JUMP JUMPDEST PUSH3 0x303 DUP5 PUSH3 0x1B7 JUMP JUMPDEST DUP2 ADD PUSH1 0x20 DUP6 LT ISZERO PUSH3 0x313 JUMPI DUP2 SWAP1 POP JUMPDEST PUSH3 0x32B PUSH3 0x322 DUP6 PUSH3 0x1B7 JUMP JUMPDEST DUP4 ADD DUP3 PUSH3 0x2BC JUMP JUMPDEST POP POP JUMPDEST POP POP POP JUMP JUMPDEST PUSH1 0x0 DUP3 DUP3 SHR SWAP1 POP SWAP3 SWAP2 POP POP JUMP JUMPDEST PUSH1 0x0 PUSH3 0x353 PUSH1 0x0 NOT DUP5 PUSH1 0x8 MUL PUSH3 0x333 JUMP JUMPDEST NOT DUP1 DUP4 AND SWAP2 POP POP SWAP3 SWAP2 POP POP JUMP JUMPDEST PUSH1 0x0 PUSH3 0x36E DUP4 DUP4 PUSH3 0x340 JUMP JUMPDEST SWAP2 POP DUP3 PUSH1 0x2 MUL DUP3 OR SWAP1 POP SWAP3 SWAP2 POP POP JUMP JUMPDEST PUSH3 0x389 DUP3 PUSH3 0x104 JUMP JUMPDEST PUSH8 0xFFFFFFFFFFFFFFFF DUP2 GT ISZERO PUSH3 0x3A5 JUMPI PUSH3 0x3A4 PUSH3 0x10F JUMP JUMPDEST JUMPDEST PUSH3 0x3B1 DUP3 SLOAD PUSH3 0x16D JUMP JUMPDEST PUSH3 0x3BE DUP3 DUP3 DUP6 PUSH3 0x2E3 JUMP JUMPDEST PUSH1 0x0 PUSH1 0x20 SWAP1 POP PUSH1 0x1F DUP4 GT PUSH1 0x1 DUP2 EQ PUSH3 0x3F6 JUMPI PUSH1 0x0 DUP5 ISZERO PUSH3 0x3E1 JUMPI DUP3 DUP8 ADD MLOAD SWAP1 POP JUMPDEST PUSH3 0x3ED DUP6 DUP3 PUSH3 0x360 JUMP JUMPDEST DUP7 SSTORE POP PUSH3 0x45D JUMP JUMPDEST PUSH1 0x1F NOT DUP5 AND PUSH3 0x406 DUP7 PUSH3 0x1A2 JUMP JUMPDEST PUSH1 0x0 JUMPDEST DUP3 DUP2 LT ISZERO PUSH3 0x430 JUMPI DUP5 DUP10 ADD MLOAD DUP3 SSTORE PUSH1 0x1 DUP3 ADD SWAP2 POP PUSH1 0x20 DUP6 ADD SWAP5 POP PUSH1 0x20 DUP2 ADD SWAP1 POP PUSH3 0x409 JUMP JUMPDEST DUP7 DUP4 LT ISZERO PUSH3 0x450 JUMPI DUP5 DUP10 ADD MLOAD PUSH3 0x44C PUSH1 0x1F DUP10 AND DUP3 PUSH3 0x340 JUMP JUMPDEST DUP4 SSTORE POP JUMPDEST PUSH1 0x1 PUSH1 0x2 DUP9 MUL ADD DUP9 SSTORE POP POP POP JUMPDEST POP POP POP POP POP POP JUMP JUMPDEST PUSH2 0xAE0 DUP1 PUSH3 0x475 PUSH1 0x0 CODECOPY PUSH1 0x0 RETURN INVALID PUSH1 0x80 PUSH1 0x40 MSTORE CALLVALUE DUP1 ISZERO PUSH2 0x10 JUMPI PUSH1 0x0 DUP1 REVERT JUMPDEST POP PUSH1 0x4 CALLDATASIZE LT PUSH2 0x7D JUMPI PUSH1 0x0 CALLDATALOAD PUSH1 0xE0 SHR DUP1 PUSH4 0x70A08231 GT PUSH2 0x5B JUMPI DUP1 PUSH4 0x70A08231 EQ PUSH2 0xDA JUMPI DUP1 PUSH4 0x95D89B41 EQ PUSH2 0x10A JUMPI DUP1 PUSH4 0xA9059CBB EQ PUSH2 0x128 JUMPI DUP1 PUSH4 0xE4997DC5 EQ PUSH2 0x158 JUMPI PUSH2 0x7D JUMP JUMPDEST DUP1 PUSH4 0x6FDDE03 EQ PUSH2 0x82 JUMPI DUP1 PUSH4 0x18160DDD EQ PUSH2 0xA0 JUMPI DUP1 PUSH4 0x4838D165 EQ PUSH2 0xBE JUMPI JUMPDEST PUSH1 0x0 DUP1 REVERT JUMPDEST PUSH2 0x8A PUSH2 0x174 JUMP JUMPDEST PUSH1 0x40 MLOAD PUSH2 0x97 SWAP2 SWAP1 PUSH2 0x60B JUMP JUMPDEST PUSH1 0x40 MLOAD DUP1 SWAP2 SUB SWAP1 RETURN JUMPDEST PUSH2 0xA8 PUSH2 0x206 JUMP JUMPDEST PUSH1 0x40 MLOAD PUSH2 0xB5 SWAP2 SWAP1 PUSH2 0x646 JUMP JUMPDEST PUSH1 0x40 MLOAD DUP1 SWAP2 SUB SWAP1 RETURN JUMPDEST PUSH2 0xD8 PUSH1 0x4 DUP1 CALLDATASIZE SUB DUP2 ADD SWAP1 PUSH2 0xD3 SWAP2 SWAP1 PUSH2 0x6C4 JUMP JUMPDEST PUSH2 0x210 JUMP JUMPDEST STOP JUMPDEST PUSH2 0xF4 PUSH1 0x4 DUP1 CALLDATASIZE SUB DUP2 ADD SWAP1 PUSH2 0xEF SWAP2 SWAP1 PUSH2 0x6C4 JUMP JUMPDEST PUSH2 0x26A JUMP JUMPDEST PUSH1 0x40 MLOAD PUSH2 0x101 SWAP2 SWAP1 PUSH2 0x646 JUMP JUMPDEST PUSH1 0x40 MLOAD DUP1 SWAP2 SUB SWAP1 RETURN JUMPDEST PUSH2 0x112 PUSH2 0x319 JUMP JUMPDEST PUSH1 0x40 MLOAD PUSH2 0x11F SWAP2 SWAP1 PUSH2 0x60B JUMP JUMPDEST PUSH1 0x40 MLOAD DUP1 SWAP2 SUB SWAP1 RETURN JUMPDEST PUSH2 0x142 PUSH1 0x4 DUP1 CALLDATASIZE SUB DUP2 ADD SWAP1 PUSH2 0x13D SWAP2 SWAP1 PUSH2 0x71D JUMP JUMPDEST PUSH2 0x3AB JUMP JUMPDEST PUSH1 0x40 MLOAD PUSH2 0x14F SWAP2 SWAP1 PUSH2 0x778 JUMP JUMPDEST PUSH1 0x40 MLOAD DUP1 SWAP2 SUB SWAP1 RETURN JUMPDEST PUSH2 0x172 PUSH1 0x4 DUP1 CALLDATASIZE SUB DUP2 ADD SWAP1 PUSH2 0x16D SWAP2 SWAP1 PUSH2 0x6C4 JUMP JUMPDEST PUSH2 0x4DC JUMP JUMPDEST STOP JUMPDEST PUSH1 0x60 PUSH1 0x4 DUP1 SLOAD PUSH2 0x183 SWAP1 PUSH2 0x7C2 JUMP JUMPDEST DUP1 PUSH1 0x1F ADD PUSH1 0x20 DUP1 SWAP2 DIV MUL PUSH1 0x20 ADD PUSH1 0x40 MLOAD SWAP1 DUP2 ADD PUSH1 0x40 MSTORE DUP1 SWAP3 SWAP2 SWAP1 DUP2 DUP2 MSTORE PUSH1 0x20 ADD DUP3 DUP1 SLOAD PUSH2 0x1AF SWAP1 PUSH2 0x7C2 JUMP JUMPDEST DUP1 ISZERO PUSH2 0x1FC JUMPI DUP1 PUSH1 0x1F LT PUSH2 0x1D1 JUMPI PUSH2 0x100 DUP1 DUP4 SLOAD DIV MUL DUP4 MSTORE SWAP2 PUSH1 0x20 ADD SWAP2 PUSH2 0x1FC JUMP JUMPDEST DUP3 ADD SWAP2 SWAP1 PUSH1 0x0 MSTORE PUSH1 0x20 PUSH1 0x0 KECCAK256 SWAP1 JUMPDEST DUP2 SLOAD DUP2 MSTORE SWAP1 PUSH1 0x1 ADD SWAP1 PUSH1 0x20 ADD DUP1 DUP4 GT PUSH2 0x1DF JUMPI DUP3 SWAP1 SUB PUSH1 0x1F AND DUP3 ADD SWAP2 JUMPDEST POP POP POP POP POP SWAP1 POP SWAP1 JUMP JUMPDEST PUSH1 0x0 PUSH1 0x2 SLOAD SWAP1 POP SWAP1 JUMP JUMPDEST PUSH1 0x1 DUP1 PUSH1 0x0 DUP4 PUSH20 0xFFFFFFFFFFFFFFFFFFFFFFFFFFFFFFFFFFFFFFFF AND PUSH20 0xFFFFFFFFFFFFFFFFFFFFFFFFFFFFFFFFFFFFFFFF AND DUP2 MSTORE PUSH1 0x20 ADD SWAP1 DUP2 MSTORE PUSH1 0x20 ADD PUSH1 0x0 KECCAK256 PUSH1 0x0 PUSH2 0x100 EXP DUP2 SLOAD DUP2 PUSH1 0xFF MUL NOT AND SWAP1 DUP4 ISZERO ISZERO MUL OR SWAP1 SSTORE POP POP JUMP JUMPDEST PUSH1 0x0 PUSH1 0x1 PUSH1 0x0 DUP4 PUSH20 0xFFFFFFFFFFFFFFFFFFFFFFFFFFFFFFFFFFFFFFFF AND PUSH20 0xFFFFFFFFFFFFFFFFFFFFFFFFFFFFFFFFFFFFFFFF AND DUP2 MSTORE PUSH1 0x20 ADD SWAP1 DUP2 MSTORE PUSH1 0x20 ADD PUSH1 0x0 KECCAK256 PUSH1 0x0 SWAP1 SLOAD SWAP1 PUSH2 0x100 EXP SWAP1 DIV PUSH1 0xFF AND ISZERO PUSH2 0x2C7 JUMPI PUSH1 0x0 SWAP1 POP PUSH2 0x314 JUMP JUMPDEST PUSH2 0x311 PUSH1 0x0 DUP1 DUP5 PUSH20 0xFFFFFFFFFFFFFFFFFFFFFFFFFFFFFFFFFFFFFFFF AND PUSH20 0xFFFFFFFFFFFFFFFFFFFFFFFFFFFFFFFFFFFFFFFF AND DUP2 MSTORE PUSH1 0x20 ADD SWAP1 DUP2 MSTORE PUSH1 0x20 ADD PUSH1 0x0 KECCAK256 SLOAD PUSH1 0x3 SLOAD PUSH2 0x537 JUMP JUMPDEST SWAP1 POP JUMPDEST SWAP2 SWAP1 POP JUMP JUMPDEST PUSH1 0x60 PUSH1 0x5 DUP1 SLOAD PUSH2 0x328 SWAP1 PUSH2 0x7C2 JUMP JUMPDEST DUP1 PUSH1 0x1F ADD PUSH1 0x20 DUP1 SWAP2 DIV MUL PUSH1 0x20 ADD PUSH1 0x40 MLOAD SWAP1 DUP2 ADD PUSH1 0x40 MSTORE DUP1 SWAP3 SWAP2 SWAP1 DUP2 DUP2 MSTORE PUSH1 0x20 ADD DUP3 DUP1 SLOAD PUSH2 0x354 SWAP1 PUSH2 0x7C2 JUMP JUMPDEST DUP1 ISZERO PUSH2 0x3A1 JUMPI DUP1 PUSH1 0x1F LT PUSH2 0x376 JUMPI PUSH2 0x100 DUP1 DUP4 SLOAD DIV MUL DUP4 MSTORE SWAP2 PUSH1 0x20 ADD SWAP2 PUSH2 0x3A1 JUMP JUMPDEST DUP3 ADD SWAP2 SWAP1 PUSH1 0x0 MSTORE PUSH1 0x20 PUSH1 0x0 KECCAK256 SWAP1 JUMPDEST DUP2 SLOAD DUP2 MSTORE SWAP1 PUSH1 0x1 ADD SWAP1 PUSH1 0x20 ADD DUP1 DUP4 GT PUSH2 0x384 JUMPI DUP3 SWAP1 SUB PUSH1 0x1F AND DUP3 ADD SWAP2 JUMPDEST POP POP POP POP POP SWAP1 POP SWAP1 JUMP JUMPDEST PUSH1 0x0 DUP1 DUP3 LT DUP1 PUSH2 0x403 JUMPI POP DUP2 PUSH2 0x401 PUSH1 0x0 DUP1 CALLER PUSH20 0xFFFFFFFFFFFFFFFFFFFFFFFFFFFFFFFFFFFFFFFF AND PUSH20 0xFFFFFFFFFFFFFFFFFFFFFFFFFFFFFFFFFFFFFFFF AND DUP2 MSTORE PUSH1 0x20 ADD SWAP1 DUP2 MSTORE PUSH1 0x20 ADD PUSH1 0x0 KECCAK256 SLOAD PUSH1 0x3 SLOAD PUSH2 0x537 JUMP JUMPDEST LT JUMPDEST ISZERO PUSH2 0x411 JUMPI PUSH1 0x0 SWAP1 POP PUSH2 0x4D6 JUMP JUMPDEST PUSH2 0x41D DUP3 PUSH1 0x3 SLOAD PUSH2 0x559 JUMP JUMPDEST PUSH1 0x0 DUP1 CALLER PUSH20 0xFFFFFFFFFFFFFFFFFFFFFFFFFFFFFFFFFFFFFFFF AND PUSH20 0xFFFFFFFFFFFFFFFFFFFFFFFFFFFFFFFFFFFFFFFF AND DUP2 MSTORE PUSH1 0x20 ADD SWAP1 DUP2 MSTORE PUSH1 0x20 ADD PUSH1 0x0 KECCAK256 PUSH1 0x0 DUP3 DUP3 SLOAD PUSH2 0x46A SWAP2 SWAP1 PUSH2 0x822 JUMP JUMPDEST SWAP3 POP POP DUP2 SWAP1 SSTORE POP PUSH2 0x47D DUP3 PUSH1 0x3 SLOAD PUSH2 0x559 JUMP JUMPDEST PUSH1 0x0 DUP1 DUP6 PUSH20 0xFFFFFFFFFFFFFFFFFFFFFFFFFFFFFFFFFFFFFFFF AND PUSH20 0xFFFFFFFFFFFFFFFFFFFFFFFFFFFFFFFFFFFFFFFF AND DUP2 MSTORE PUSH1 0x20 ADD SWAP1 DUP2 MSTORE PUSH1 0x20 ADD PUSH1 0x0 KECCAK256 PUSH1 0x0 DUP3 DUP3 SLOAD PUSH2 0x4CA SWAP2 SWAP1 PUSH2 0x856 JUMP JUMPDEST SWAP3 POP POP DUP2 SWAP1 SSTORE POP PUSH1 0x1 SWAP1 POP JUMPDEST SWAP3 SWAP2 POP POP JUMP JUMPDEST PUSH1 0x0 PUSH1 0x1 PUSH1 0x0 DUP4 PUSH20 0xFFFFFFFFFFFFFFFFFFFFFFFFFFFFFFFFFFFFFFFF AND PUSH20 0xFFFFFFFFFFFFFFFFFFFFFFFFFFFFFFFFFFFFFFFF AND DUP2 MSTORE PUSH1 0x20 ADD SWAP1 DUP2 MSTORE PUSH1 0x20 ADD PUSH1 0x0 KECCAK256 PUSH1 0x0 PUSH2 0x100 EXP DUP2 SLOAD DUP2 PUSH1 0xFF MUL NOT AND SWAP1 DUP4 ISZERO ISZERO MUL OR SWAP1 SSTORE POP POP JUMP JUMPDEST PUSH1 0x0 DUP2 PUSH1 0xA PUSH2 0x546 SWAP2 SWAP1 PUSH2 0x9BD JUMP JUMPDEST DUP4 PUSH2 0x551 SWAP2 SWAP1 PUSH2 0xA37 JUMP JUMPDEST SWAP1 POP SWAP3 SWAP2 POP POP JUMP JUMPDEST PUSH1 0x0 DUP2 PUSH1 0xA PUSH2 0x568 SWAP2 SWAP1 PUSH2 0x9BD JUMP JUMPDEST DUP4 PUSH2 0x573 SWAP2 SWAP1 PUSH2 0xA68 JUMP JUMPDEST SWAP1 POP SWAP3 SWAP2 POP POP JUMP JUMPDEST PUSH1 0x0 DUP2 MLOAD SWAP1 POP SWAP2 SWAP1 POP JUMP JUMPDEST PUSH1 0x0 DUP3 DUP3 MSTORE PUSH1 0x20 DUP3 ADD SWAP1 POP SWAP3 SWAP2 POP POP JUMP JUMPDEST PUSH1 0x0 JUMPDEST DUP4 DUP2 LT ISZERO PUSH2 0x5B5 JUMPI DUP1 DUP3 ADD MLOAD DUP2 DUP5 ADD MSTORE PUSH1 0x20 DUP2 ADD SWAP1 POP PUSH2 0x59A JUMP JUMPDEST PUSH1 0x0 DUP5 DUP5 ADD MSTORE POP POP POP POP JUMP JUMPDEST PUSH1 0x0 PUSH1 0x1F NOT PUSH1 0x1F DUP4 ADD AND SWAP1 POP SWAP2 SWAP1 POP JUMP JUMPDEST PUSH1 0x0 PUSH2 0x5DD DUP3 PUSH2 0x57B JUMP JUMPDEST PUSH2 0x5E7 DUP2 DUP6 PUSH2 0x586 JUMP JUMPDEST SWAP4 POP PUSH2 0x5F7 DUP2 DUP6 PUSH1 0x20 DUP7 ADD PUSH2 0x597 JUMP JUMPDEST PUSH2 0x600 DUP2 PUSH2 0x5C1 JUMP JUMPDEST DUP5 ADD SWAP2 POP POP SWAP3 SWAP2 POP POP JUMP JUMPDEST PUSH1 0x0 PUSH1 0x20 DUP3 ADD SWAP1 POP DUP2 DUP2 SUB PUSH1 0x0 DUP4 ADD MSTORE PUSH2 0x625 DUP2 DUP5 PUSH2 0x5D2 JUMP JUMPDEST SWAP1 POP SWAP3 SWAP2 POP POP JUMP JUMPDEST PUSH1 0x0 DUP2 SWAP1 POP SWAP2 SWAP1 POP JUMP JUMPDEST PUSH2 0x640 DUP2 PUSH2 0x62D JUMP JUMPDEST DUP3 MSTORE POP POP JUMP JUMPDEST PUSH1 0x0 PUSH1 0x20 DUP3 ADD SWAP1 POP PUSH2 0x65B PUSH1 0x0 DUP4 ADD DUP5 PUSH2 0x637 JUMP JUMPDEST SWAP3 SWAP2 POP POP JUMP JUMPDEST PUSH1 0x0 DUP1 REVERT JUMPDEST PUSH1 0x0 PUSH20 0xFFFFFFFFFFFFFFFFFFFFFFFFFFFFFFFFFFFFFFFF DUP3 AND SWAP1 POP SWAP2 SWAP1 POP JUMP JUMPDEST PUSH1 0x0 PUSH2 0x691 DUP3 PUSH2 0x666 JUMP JUMPDEST SWAP1 POP SWAP2 SWAP1 POP JUMP JUMPDEST PUSH2 0x6A1 DUP2 PUSH2 0x686 JUMP JUMPDEST DUP2 EQ PUSH2 0x6AC JUMPI PUSH1 0x0 DUP1 REVERT JUMPDEST POP JUMP JUMPDEST PUSH1 0x0 DUP2 CALLDATALOAD SWAP1 POP PUSH2 0x6BE DUP2 PUSH2 0x698 JUMP JUMPDEST SWAP3 SWAP2 POP POP JUMP JUMPDEST PUSH1 0x0 PUSH1 0x20 DUP3 DUP5 SUB SLT ISZERO PUSH2 0x6DA JUMPI PUSH2 0x6D9 PUSH2 0x661 JUMP JUMPDEST JUMPDEST PUSH1 0x0 PUSH2 0x6E8 DUP5 DUP3 DUP6 ADD PUSH2 0x6AF JUMP JUMPDEST SWAP2 POP POP SWAP3 SWAP2 POP POP JUMP JUMPDEST PUSH2 0x6FA DUP2 PUSH2 0x62D JUMP JUMPDEST DUP2 EQ PUSH2 0x705 JUMPI PUSH1 0x0 DUP1 REVERT JUMPDEST POP JUMP JUMPDEST PUSH1 0x0 DUP2 CALLDATALOAD SWAP1 POP PUSH2 0x717 DUP2 PUSH2 0x6F1 JUMP JUMPDEST SWAP3 SWAP2 POP POP JUMP JUMPDEST PUSH1 0x0 DUP1 PUSH1 0x40 DUP4 DUP6 SUB SLT ISZERO PUSH2 0x734 JUMPI PUSH2 0x733 PUSH2 0x661 JUMP JUMPDEST JUMPDEST PUSH1 0x0 PUSH2 0x742 DUP6 DUP3 DUP7 ADD PUSH2 0x6AF JUMP JUMPDEST SWAP3 POP POP PUSH1 0x20 PUSH2 0x753 DUP6 DUP3 DUP7 ADD PUSH2 0x708 JUMP JUMPDEST SWAP2 POP POP SWAP3 POP SWAP3 SWAP1 POP JUMP JUMPDEST PUSH1 0x0 DUP2 ISZERO ISZERO SWAP1 POP SWAP2 SWAP1 POP JUMP JUMPDEST PUSH2 0x772 DUP2 PUSH2 0x75D JUMP JUMPDEST DUP3 MSTORE POP POP JUMP JUMPDEST PUSH1 0x0 PUSH1 0x20 DUP3 ADD SWAP1 POP PUSH2 0x78D PUSH1 0x0 DUP4 ADD DUP5 PUSH2 0x769 JUMP JUMPDEST SWAP3 SWAP2 POP POP JUMP JUMPDEST PUSH32 0x4E487B7100000000000000000000000000000000000000000000000000000000 PUSH1 0x0 MSTORE PUSH1 0x22 PUSH1 0x4 MSTORE PUSH1 0x24 PUSH1 0x0 REVERT JUMPDEST PUSH1 0x0 PUSH1 0x2 DUP3 DIV SWAP1 POP PUSH1 0x1 DUP3 AND DUP1 PUSH2 0x7DA JUMPI PUSH1 0x7F DUP3 AND SWAP2 POP JUMPDEST PUSH1 0x20 DUP3 LT DUP2 SUB PUSH2 0x7ED JUMPI PUSH2 0x7EC PUSH2 0x793 JUMP JUMPDEST JUMPDEST POP SWAP2 SWAP1 POP JUMP JUMPDEST PUSH32 0x4E487B7100000000000000000000000000000000000000000000000000000000 PUSH1 0x0 MSTORE PUSH1 0x11 PUSH1 0x4 MSTORE PUSH1 0x24 PUSH1 0x0 REVERT JUMPDEST PUSH1 0x0 PUSH2 0x82D DUP3 PUSH2 0x62D JUMP JUMPDEST SWAP2 POP PUSH2 0x838 DUP4 PUSH2 0x62D JUMP JUMPDEST SWAP3 POP DUP3 DUP3 SUB SWAP1 POP DUP2 DUP2 GT ISZERO PUSH2 0x850 JUMPI PUSH2 0x84F PUSH2 0x7F3 JUMP JUMPDEST JUMPDEST SWAP3 SWAP2 POP POP JUMP JUMPDEST PUSH1 0x0 PUSH2 0x861 DUP3 PUSH2 0x62D JUMP JUMPDEST SWAP2 POP PUSH2 0x86C DUP4 PUSH2 0x62D JUMP JUMPDEST SWAP3 POP DUP3 DUP3 ADD SWAP1 POP DUP1 DUP3 GT ISZERO PUSH2 0x884 JUMPI PUSH2 0x883 PUSH2 0x7F3 JUMP JUMPDEST JUMPDEST SWAP3 SWAP2 POP POP JUMP JUMPDEST PUSH1 0x0 DUP2 PUSH1 0x1 SHR SWAP1 POP SWAP2 SWAP1 POP JUMP JUMPDEST PUSH1 0x0 DUP1 DUP3 SWAP2 POP DUP4 SWAP1 POP JUMPDEST PUSH1 0x1 DUP6 GT ISZERO PUSH2 0x8E1 JUMPI DUP1 DUP7 DIV DUP2 GT ISZERO PUSH2 0x8BD JUMPI PUSH2 0x8BC PUSH2 0x7F3 JUMP JUMPDEST JUMPDEST PUSH1 0x1 DUP6 AND ISZERO PUSH2 0x8CC JUMPI DUP1 DUP3 MUL SWAP2 POP JUMPDEST DUP1 DUP2 MUL SWAP1 POP PUSH2 0x8DA DUP6 PUSH2 0x88A JUMP JUMPDEST SWAP5 POP PUSH2 0x8A1 JUMP JUMPDEST SWAP5 POP SWAP5 SWAP3 POP POP POP JUMP JUMPDEST PUSH1 0x0 DUP3 PUSH2 0x8FA JUMPI PUSH1 0x1 SWAP1 POP PUSH2 0x9B6 JUMP JUMPDEST DUP2 PUSH2 0x908 JUMPI PUSH1 0x0 SWAP1 POP PUSH2 0x9B6 JUMP JUMPDEST DUP2 PUSH1 0x1 DUP2 EQ PUSH2 0x91E JUMPI PUSH1 0x2 DUP2 EQ PUSH2 0x928 JUMPI PUSH2 0x957 JUMP JUMPDEST PUSH1 0x1 SWAP2 POP POP PUSH2 0x9B6 JUMP JUMPDEST PUSH1 0xFF DUP5 GT ISZERO PUSH2 0x93A JUMPI PUSH2 0x939 PUSH2 0x7F3 JUMP JUMPDEST JUMPDEST DUP4 PUSH1 0x2 EXP SWAP2 POP DUP5 DUP3 GT ISZERO PUSH2 0x951 JUMPI PUSH2 0x950 PUSH2 0x7F3 JUMP JUMPDEST JUMPDEST POP PUSH2 0x9B6 JUMP JUMPDEST POP PUSH1 0x20 DUP4 LT PUSH2 0x133 DUP4 LT AND PUSH1 0x4E DUP5 LT PUSH1 0xB DUP5 LT AND OR ISZERO PUSH2 0x98C JUMPI DUP3 DUP3 EXP SWAP1 POP DUP4 DUP2 GT ISZERO PUSH2 0x987 JUMPI PUSH2 0x986 PUSH2 0x7F3 JUMP JUMPDEST JUMPDEST PUSH2 0x9B6 JUMP JUMPDEST PUSH2 0x999 DUP5 DUP5 DUP5 PUSH1 0x1 PUSH2 0x897 JUMP JUMPDEST SWAP3 POP SWAP1 POP DUP2 DUP5 DIV DUP2 GT ISZERO PUSH2 0x9B0 JUMPI PUSH2 0x9AF PUSH2 0x7F3 JUMP JUMPDEST JUMPDEST DUP2 DUP2 MUL SWAP1 POP JUMPDEST SWAP4 SWAP3 POP POP POP JUMP JUMPDEST PUSH1 0x0 PUSH2 0x9C8 DUP3 PUSH2 0x62D JUMP JUMPDEST SWAP2 POP PUSH2 0x9D3 DUP4 PUSH2 0x62D JUMP JUMPDEST SWAP3 POP PUSH2 0xA00 PUSH32 0xFFFFFFFFFFFFFFFFFFFFFFFFFFFFFFFFFFFFFFFFFFFFFFFFFFFFFFFFFFFFFFFF DUP5 DUP5 PUSH2 0x8EA JUMP JUMPDEST SWAP1 POP SWAP3 SWAP2 POP POP JUMP JUMPDEST PUSH32 0x4E487B7100000000000000000000000000000000000000000000000000000000 PUSH1 0x0 MSTORE PUSH1 0x12 PUSH1 0x4 MSTORE PUSH1 0x24 PUSH1 0x0 REVERT JUMPDEST PUSH1 0x0 PUSH2 0xA42 DUP3 PUSH2 0x62D JUMP JUMPDEST SWAP2 POP PUSH2 0xA4D DUP4 PUSH2 0x62D JUMP JUMPDEST SWAP3 POP DUP3 PUSH2 0xA5D JUMPI PUSH2 0xA5C PUSH2 0xA08 JUMP JUMPDEST JUMPDEST DUP3 DUP3 DIV SWAP1 POP SWAP3 SWAP2 POP POP JUMP JUMPDEST PUSH1 0x0 PUSH2 0xA73 DUP3 PUSH2 0x62D JUMP JUMPDEST SWAP2 POP PUSH2 0xA7E DUP4 PUSH2 0x62D JUMP JUMPDEST SWAP3 POP DUP3 DUP3 MUL PUSH2 0xA8C DUP2 PUSH2 0x62D JUMP JUMPDEST SWAP2 POP DUP3 DUP3 DIV DUP5 EQ DUP4 ISZERO OR PUSH2 0xAA3 JUMPI PUSH2 0xAA2 PUSH2 0x7F3 JUMP JUMPDEST JUMPDEST POP SWAP3 SWAP2 POP POP JUMP INVALID LOG2 PUSH5 0x6970667358 0x22 SLT KECCAK256 PUSH25 0x5745CB47B0151A2C0B6490EA43F7898F956ABC0C63FA5EA4A9 SWAP15 0xD0 0xBE DUP15 LOG4 0x5C PUSH5 0x736F6C6343 STOP ADDMOD GT STOP CALLER "
				},
				"gasEstimates": {
					"creation": {
						"codeDepositCost": "556800",
						"executionCost": "infinite",
						"totalCost": "infinite"
					},
					"external": {
						"balanceOf(address)": "infinite",
						"blackList(address)": "24857",
						"name()": "infinite",
						"removeBlackList(address)": "24878",
						"symbol()": "infinite",
						"totalSupply()": "2460",
						"transfer(address,uint256)": "infinite"
					}
				},
				"methodIdentifiers": {
					"balanceOf(address)": "70a08231",
					"blackList(address)": "4838d165",
					"name()": "06fdde03",
					"removeBlackList(address)": "e4997dc5",
					"symbol()": "95d89b41",
					"totalSupply()": "18160ddd",
					"transfer(address,uint256)": "a9059cbb"
				}
			},
			"storageLayout": {
				"storage": [
					{
						"astId": 72,
						"contract": "ERC20.sol:ERC20",
						"label": "_balances",
						"offset": 0,
						"slot": "0",
						"type": "t_mapping(t_address,t_uint256)"
					},
					{
						"astId": 76,
						"contract": "ERC20.sol:ERC20",
						"label": "_blacklisted",
						"offset": 0,
						"slot": "1",
						"type": "t_mapping(t_address,t_bool)"
					},
					{
						"astId": 78,
						"contract": "ERC20.sol:ERC20",
						"label": "_totalSupply",
						"offset": 0,
						"slot": "2",
						"type": "t_uint256"
					},
					{
						"astId": 80,
						"contract": "ERC20.sol:ERC20",
						"label": "_decimals",
						"offset": 0,
						"slot": "3",
						"type": "t_uint256"
					},
					{
						"astId": 82,
						"contract": "ERC20.sol:ERC20",
						"label": "_name",
						"offset": 0,
						"slot": "4",
						"type": "t_string_storage"
					},
					{
						"astId": 84,
						"contract": "ERC20.sol:ERC20",
						"label": "_symbol",
						"offset": 0,
						"slot": "5",
						"type": "t_string_storage"
					}
				],
				"types": {
					"t_address": {
						"encoding": "inplace",
						"label": "address",
						"numberOfBytes": "20"
					},
					"t_bool": {
						"encoding": "inplace",
						"label": "bool",
						"numberOfBytes": "1"
					},
					"t_mapping(t_address,t_bool)": {
						"encoding": "mapping",
						"key": "t_address",
						"label": "mapping(address => bool)",
						"numberOfBytes": "32",
						"value": "t_bool"
					},
					"t_mapping(t_address,t_uint256)": {
						"encoding": "mapping",
						"key": "t_address",
						"label": "mapping(address => uint256)",
						"numberOfBytes": "32",
						"value": "t_uint256"
					},
					"t_string_storage": {
						"encoding": "bytes",
						"label": "string",
						"numberOfBytes": "32"
					},
					"t_uint256": {
						"encoding": "inplace",
						"label": "uint256",
						"numberOfBytes": "32"
					}
				}
			},
			"userdoc": {
				"kind": "user",
				"methods": {},
				"version": 1
			}
		}
	}
}